{
  "contractName": "Purchase",
  "abi": [
    {
      "anonymous": false,
      "inputs": [
        {
          "indexed": false,
          "internalType": "bytes32",
          "name": "orderId",
          "type": "bytes32"
        },
        {
          "indexed": false,
          "internalType": "address",
          "name": "buyer",
          "type": "address"
        },
        {
          "indexed": false,
          "internalType": "address",
          "name": "vendor",
          "type": "address"
        },
        {
          "indexed": false,
          "internalType": "string",
          "name": "product",
          "type": "string"
        },
        {
          "indexed": false,
          "internalType": "uint256",
          "name": "quantity",
          "type": "uint256"
        },
        {
          "indexed": false,
          "internalType": "uint256",
          "name": "amount",
          "type": "uint256"
        }
      ],
      "name": "NewOrderPlaced",
      "type": "event"
    },
    {
      "stateMutability": "payable",
      "type": "fallback",
      "payable": true
    },
    {
      "inputs": [
        {
          "internalType": "uint256",
          "name": "",
          "type": "uint256"
        }
      ],
      "name": "orderList",
      "outputs": [
        {
          "internalType": "address",
          "name": "buyer",
          "type": "address"
        },
        {
          "internalType": "address",
          "name": "vendor",
          "type": "address"
        },
        {
          "internalType": "string",
          "name": "product",
          "type": "string"
        },
        {
          "internalType": "uint256",
          "name": "qty",
          "type": "uint256"
        },
        {
          "internalType": "uint256",
          "name": "amount",
          "type": "uint256"
        }
      ],
      "stateMutability": "view",
      "type": "function",
      "constant": true
    },
    {
      "inputs": [
        {
          "internalType": "uint256",
          "name": "",
          "type": "uint256"
        }
      ],
      "name": "orderListAddresses",
      "outputs": [
        {
          "internalType": "bytes32",
          "name": "",
          "type": "bytes32"
        }
      ],
      "stateMutability": "view",
      "type": "function",
      "constant": true
    },
    {
      "inputs": [
        {
          "internalType": "bytes32",
          "name": "",
          "type": "bytes32"
        }
      ],
      "name": "orderMapping",
      "outputs": [
        {
          "internalType": "address",
          "name": "buyer",
          "type": "address"
        },
        {
          "internalType": "address",
          "name": "vendor",
          "type": "address"
        },
        {
          "internalType": "string",
          "name": "product",
          "type": "string"
        },
        {
          "internalType": "uint256",
          "name": "qty",
          "type": "uint256"
        },
        {
          "internalType": "uint256",
          "name": "amount",
          "type": "uint256"
        }
      ],
      "stateMutability": "view",
      "type": "function",
      "constant": true
    },
    {
      "stateMutability": "payable",
      "type": "receive",
      "payable": true
    },
    {
      "inputs": [],
      "name": "getBalance",
      "outputs": [
        {
          "internalType": "uint256",
          "name": "",
          "type": "uint256"
        }
      ],
      "stateMutability": "view",
      "type": "function",
      "constant": true
    },
    {
      "inputs": [
        {
          "internalType": "address",
          "name": "_buyer",
          "type": "address"
        },
        {
          "internalType": "address",
          "name": "_vendor",
          "type": "address"
        },
        {
          "internalType": "string",
          "name": "_product",
          "type": "string"
        },
        {
          "internalType": "uint256",
          "name": "_quantity",
          "type": "uint256"
        },
        {
          "internalType": "uint256",
          "name": "_amount",
          "type": "uint256"
        }
      ],
      "name": "placePurchaseOrder",
      "outputs": [],
      "stateMutability": "payable",
      "type": "function",
      "payable": true
    }
  ],
  "bytecode": "0x608060405234801561001057600080fd5b50610fc9806100206000396000f3fe60806040526004361061004e5760003560e01c806312065fe0146100575780632defbe6b146100825780635155a541146100c357806376f75e7f146100df578063afa64c6b1461012057610055565b3661005557005b005b34801561006357600080fd5b5061006c61015d565b6040516100799190610789565b60405180910390f35b34801561008e57600080fd5b506100a960048036038101906100a491906107e4565b610165565b6040516100ba9594939291906108e2565b60405180910390f35b6100dd60048036038101906100d891906109f9565b610263565b005b3480156100eb57600080fd5b5061010660048036038101906101019190610a93565b6105e3565b6040516101179594939291906108e2565b60405180910390f35b34801561012c57600080fd5b5061014760048036038101906101429190610a93565b6106f1565b6040516101549190610acf565b60405180910390f35b600047905090565b60016020528060005260406000206000915090508060000160009054906101000a900473ffffffffffffffffffffffffffffffffffffffff16908060010160009054906101000a900473ffffffffffffffffffffffffffffffffffffffff16908060020180546101d490610b19565b80601f016020809104026020016040519081016040528092919081815260200182805461020090610b19565b801561024d5780601f106102225761010080835404028352916020019161024d565b820191906000526020600020905b81548152906001019060200180831161023057829003601f168201915b5050505050908060030154908060040154905085565b600086868686868660405160200161028096959493929190610bf2565b6040516020818303038152906040528051906020012090506102a0610715565b87816000019073ffffffffffffffffffffffffffffffffffffffff16908173ffffffffffffffffffffffffffffffffffffffff168152505086816020019073ffffffffffffffffffffffffffffffffffffffff16908173ffffffffffffffffffffffffffffffffffffffff168152505085858080601f016020809104026020016040519081016040528093929190818152602001838380828437600081840152601f19601f8201169050808301925050505050505081604001819052508381606001818152505082816080018181525050806001600084815260200190815260200160002060008201518160000160006101000a81548173ffffffffffffffffffffffffffffffffffffffff021916908373ffffffffffffffffffffffffffffffffffffffff16021790555060208201518160010160006101000a81548173ffffffffffffffffffffffffffffffffffffffff021916908373ffffffffffffffffffffffffffffffffffffffff16021790555060408201518160020190816104289190610e2a565b506060820151816003015560808201518160040155905050600281908060018154018082558091505060019003906000526020600020906005020160009091909190915060008201518160000160006101000a81548173ffffffffffffffffffffffffffffffffffffffff021916908373ffffffffffffffffffffffffffffffffffffffff16021790555060208201518160010160006101000a81548173ffffffffffffffffffffffffffffffffffffffff021916908373ffffffffffffffffffffffffffffffffffffffff160217905550604082015181600201908161050f9190610e2a565b506060820151816003015560808201518160040155505060038290806001815401808255809150506001900390600052602060002001600090919091909150557fbb617a7103191aed1f9d36c01fbf28bf9f0c847c038eccdf012be8cc528776e08289898989898960405161058a9796959493929190610f29565b60405180910390a18673ffffffffffffffffffffffffffffffffffffffff166108fc349081150290604051600060405180830381858888f193505050501580156105d8573d6000803e3d6000fd5b505050505050505050565b600281815481106105f357600080fd5b90600052602060002090600502016000915090508060000160009054906101000a900473ffffffffffffffffffffffffffffffffffffffff16908060010160009054906101000a900473ffffffffffffffffffffffffffffffffffffffff169080600201805461066290610b19565b80601f016020809104026020016040519081016040528092919081815260200182805461068e90610b19565b80156106db5780601f106106b0576101008083540402835291602001916106db565b820191906000526020600020905b8154815290600101906020018083116106be57829003601f168201915b5050505050908060030154908060040154905085565b6003818154811061070157600080fd5b906000526020600020016000915090505481565b6040518060a00160405280600073ffffffffffffffffffffffffffffffffffffffff168152602001600073ffffffffffffffffffffffffffffffffffffffff1681526020016060815260200160008152602001600081525090565b6000819050919050565b61078381610770565b82525050565b600060208201905061079e600083018461077a565b92915050565b600080fd5b600080fd5b6000819050919050565b6107c1816107ae565b81146107cc57600080fd5b50565b6000813590506107de816107b8565b92915050565b6000602082840312156107fa576107f96107a4565b5b6000610808848285016107cf565b91505092915050565b600073ffffffffffffffffffffffffffffffffffffffff82169050919050565b600061083c82610811565b9050919050565b61084c81610831565b82525050565b600081519050919050565b600082825260208201905092915050565b60005b8381101561088c578082015181840152602081019050610871565b60008484015250505050565b6000601f19601f8301169050919050565b60006108b482610852565b6108be818561085d565b93506108ce81856020860161086e565b6108d781610898565b840191505092915050565b600060a0820190506108f76000830188610843565b6109046020830187610843565b818103604083015261091681866108a9565b9050610925606083018561077a565b610932608083018461077a565b9695505050505050565b61094581610831565b811461095057600080fd5b50565b6000813590506109628161093c565b92915050565b600080fd5b600080fd5b600080fd5b60008083601f84011261098d5761098c610968565b5b8235905067ffffffffffffffff8111156109aa576109a961096d565b5b6020830191508360018202830111156109c6576109c5610972565b5b9250929050565b6109d681610770565b81146109e157600080fd5b50565b6000813590506109f3816109cd565b92915050565b60008060008060008060a08789031215610a1657610a156107a4565b5b6000610a2489828a01610953565b9650506020610a3589828a01610953565b955050604087013567ffffffffffffffff811115610a5657610a556107a9565b5b610a6289828a01610977565b94509450506060610a7589828a016109e4565b9250506080610a8689828a016109e4565b9150509295509295509295565b600060208284031215610aa957610aa86107a4565b5b6000610ab7848285016109e4565b91505092915050565b610ac9816107ae565b82525050565b6000602082019050610ae46000830184610ac0565b92915050565b7f4e487b7100000000000000000000000000000000000000000000000000000000600052602260045260246000fd5b60006002820490506001821680610b3157607f821691505b602082108103610b4457610b43610aea565b5b50919050565b60008160601b9050919050565b6000610b6282610b4a565b9050919050565b6000610b7482610b57565b9050919050565b610b8c610b8782610831565b610b69565b82525050565b600081905092915050565b82818337600083830152505050565b6000610bb88385610b92565b9350610bc5838584610b9d565b82840190509392505050565b6000819050919050565b610bec610be782610770565b610bd1565b82525050565b6000610bfe8289610b7b565b601482019150610c0e8288610b7b565b601482019150610c1f828688610bac565b9150610c2b8285610bdb565b602082019150610c3b8284610bdb565b602082019150819050979650505050505050565b7f4e487b7100000000000000000000000000000000000000000000000000000000600052604160045260246000fd5b60008190508160005260206000209050919050565b60006020601f8301049050919050565b600082821b905092915050565b600060088302610ce07fffffffffffffffffffffffffffffffffffffffffffffffffffffffffffffffff82610ca3565b610cea8683610ca3565b95508019841693508086168417925050509392505050565b6000819050919050565b6000610d27610d22610d1d84610770565b610d02565b610770565b9050919050565b6000819050919050565b610d4183610d0c565b610d55610d4d82610d2e565b848454610cb0565b825550505050565b600090565b610d6a610d5d565b610d75818484610d38565b505050565b5b81811015610d9957610d8e600082610d62565b600181019050610d7b565b5050565b601f821115610dde57610daf81610c7e565b610db884610c93565b81016020851015610dc7578190505b610ddb610dd385610c93565b830182610d7a565b50505b505050565b600082821c905092915050565b6000610e0160001984600802610de3565b1980831691505092915050565b6000610e1a8383610df0565b9150826002028217905092915050565b610e3382610852565b67ffffffffffffffff811115610e4c57610e4b610c4f565b5b610e568254610b19565b610e61828285610d9d565b600060209050601f831160018114610e945760008415610e82578287015190505b610e8c8582610e0e565b865550610ef4565b601f198416610ea286610c7e565b60005b82811015610eca57848901518255600182019150602085019450602081019050610ea5565b86831015610ee75784890151610ee3601f891682610df0565b8355505b6001600288020188555050505b505050505050565b6000610f08838561085d565b9350610f15838584610b9d565b610f1e83610898565b840190509392505050565b600060c082019050610f3e600083018a610ac0565b610f4b6020830189610843565b610f586040830188610843565b8181036060830152610f6b818688610efc565b9050610f7a608083018561077a565b610f8760a083018461077a565b9897505050505050505056fea26469706673582212209ab6110be416363dda0bb56ea54e4a1418f530824b2fa7ab396ce4e1510b93db64736f6c63430008130033",
  "immutableReferences": {},
  "source": "// SPDX-License-Identifier: MIT\r\npragma solidity >=0.4.22 <0.9.0;\r\n\r\n// enum OrderStatus {Not_Started, Order_Placed, Vendor_Action, Vendor_Delivered, Order_Completed}\r\n\r\ncontract Purchase {\r\n    struct Order {\r\n        address buyer;\r\n        address vendor;\r\n        string product;\r\n        uint256 qty;\r\n        uint256 amount;\r\n        // OrderStatus status;\r\n    } //order in the blockchain\r\n    string name;\r\n    mapping(bytes32 => Order) public orderMapping;\r\n    Order[] public orderList;\r\n    bytes32[] public orderListAddresses;\r\n\r\n    event NewOrderPlaced(bytes32 orderId, address buyer, address vendor, string product, uint256 quantity, uint256 amount);\r\n\r\n    receive() external payable {}\r\n\r\n    fallback() external payable {}\r\n\r\n    function getBalance() public view returns (uint) {\r\n        return address(this).balance;\r\n    }\r\n\r\n    function placePurchaseOrder(address _buyer, address _vendor, string calldata _product, uint256 _quantity, uint256 _amount) public payable {\r\n\r\n        bytes32 orderID = keccak256(abi.encodePacked(_buyer,_vendor,_product,_quantity,_amount));\r\n        Order memory purchase_order;\r\n        // require(purchase_order.status == OrderStatus.Not_Started, \"Order has already been started\");\r\n        purchase_order.buyer = _buyer;\r\n        purchase_order.vendor = _vendor;\r\n        purchase_order.product = _product;\r\n        purchase_order.qty = _quantity;\r\n        purchase_order.amount = _amount;\r\n        // purchase_order.status = OrderStatus.Order_Placed;\r\n\r\n        orderMapping[orderID] = purchase_order;\r\n        orderList.push(purchase_order);\r\n        orderListAddresses.push(orderID);\r\n\r\n        emit NewOrderPlaced(orderID, _buyer, _vendor, _product, _quantity, _amount);\r\n\r\n        // payable(_vendor).transfer(_amount);\r\n        payable(_vendor).transfer(msg.value);\r\n\r\n    }\r\n\r\n}",
  "sourcePath": "c:\\Users\\adiku\\BL-FinancialSupplyChain-DApp\\contracts\\Purchase.sol",
  "compiler": {
    "name": "solc",
    "version": "0.8.19+commit.7dd6d404.Emscripten.clang"
  },
  "schemaVersion": "3.4.13",
  "updatedAt": "2023-03-14T21:01:00.234Z",
  "networkType": "ethereum",
  "devdoc": {
    "kind": "dev",
    "methods": {},
    "version": 1
  },
  "userdoc": {
    "kind": "user",
    "methods": {},
    "version": 1
  }
}