{
  "contractName": "Purchase",
  "abi": [
    {
      "anonymous": false,
      "inputs": [
        {
          "indexed": false,
          "internalType": "bytes32",
          "name": "orderId",
          "type": "bytes32"
        },
        {
          "indexed": false,
          "internalType": "address",
          "name": "buyer",
          "type": "address"
        },
        {
          "indexed": false,
          "internalType": "address",
          "name": "vendor",
          "type": "address"
        },
        {
          "indexed": false,
          "internalType": "string",
          "name": "product",
          "type": "string"
        },
        {
          "indexed": false,
          "internalType": "uint256",
          "name": "quantity",
          "type": "uint256"
        },
        {
          "indexed": false,
          "internalType": "uint256",
          "name": "amount",
          "type": "uint256"
        }
      ],
      "name": "NewOrderPlaced",
      "type": "event"
    },
    {
      "stateMutability": "payable",
      "type": "fallback",
      "payable": true
    },
    {
      "inputs": [
        {
          "internalType": "uint256",
          "name": "",
          "type": "uint256"
        }
      ],
      "name": "orderList",
      "outputs": [
        {
          "internalType": "address",
          "name": "buyer",
          "type": "address"
        },
        {
          "internalType": "address",
          "name": "vendor",
          "type": "address"
        },
        {
          "internalType": "string",
          "name": "product",
          "type": "string"
        },
        {
          "internalType": "uint256",
          "name": "qty",
          "type": "uint256"
        },
        {
          "internalType": "uint256",
          "name": "amount",
          "type": "uint256"
        }
      ],
      "stateMutability": "view",
      "type": "function",
      "constant": true
    },
    {
      "inputs": [
        {
          "internalType": "uint256",
          "name": "",
          "type": "uint256"
        }
      ],
      "name": "orderListAddresses",
      "outputs": [
        {
          "internalType": "bytes32",
          "name": "",
          "type": "bytes32"
        }
      ],
      "stateMutability": "view",
      "type": "function",
      "constant": true
    },
    {
      "inputs": [
        {
          "internalType": "bytes32",
          "name": "",
          "type": "bytes32"
        }
      ],
      "name": "orderMapping",
      "outputs": [
        {
          "internalType": "address",
          "name": "buyer",
          "type": "address"
        },
        {
          "internalType": "address",
          "name": "vendor",
          "type": "address"
        },
        {
          "internalType": "string",
          "name": "product",
          "type": "string"
        },
        {
          "internalType": "uint256",
          "name": "qty",
          "type": "uint256"
        },
        {
          "internalType": "uint256",
          "name": "amount",
          "type": "uint256"
        }
      ],
      "stateMutability": "view",
      "type": "function",
      "constant": true
    },
    {
      "inputs": [],
      "name": "whitelistAddress",
      "outputs": [
        {
          "internalType": "address",
          "name": "",
          "type": "address"
        }
      ],
      "stateMutability": "view",
      "type": "function",
      "constant": true
    },
    {
      "stateMutability": "payable",
      "type": "receive",
      "payable": true
    },
    {
      "inputs": [],
      "name": "getBalance",
      "outputs": [
        {
          "internalType": "uint256",
          "name": "",
          "type": "uint256"
        }
      ],
      "stateMutability": "view",
      "type": "function",
      "constant": true
    },
    {
      "inputs": [
        {
          "internalType": "address",
          "name": "_buyer",
          "type": "address"
        },
        {
          "internalType": "address",
          "name": "_vendor",
          "type": "address"
        },
        {
          "internalType": "string",
          "name": "_product",
          "type": "string"
        },
        {
          "internalType": "uint256",
          "name": "_quantity",
          "type": "uint256"
        },
        {
          "internalType": "uint256",
          "name": "_amount",
          "type": "uint256"
        }
      ],
      "name": "placePurchaseOrder",
      "outputs": [],
      "stateMutability": "payable",
      "type": "function",
      "payable": true
    }
  ],
  "bytecode": "0x608060405273b88a67885023a5503f6d145c3207ee4d4c31dbb1600160006101000a81548173ffffffffffffffffffffffffffffffffffffffff021916908373ffffffffffffffffffffffffffffffffffffffff160217905550600160009054906101000a900473ffffffffffffffffffffffffffffffffffffffff16600260006101000a81548173ffffffffffffffffffffffffffffffffffffffff021916908373ffffffffffffffffffffffffffffffffffffffff1602179055503480156100c857600080fd5b50611040806100d86000396000f3fe6080604052600436106100595760003560e01c806312065fe0146100625780632defbe6b1461008d5780635155a541146100ce57806376f75e7f146100ea578063afa64c6b1461012b578063e5002a051461016857610060565b3661006057005b005b34801561006e57600080fd5b50610077610193565b60405161008491906107e5565b60405180910390f35b34801561009957600080fd5b506100b460048036038101906100af9190610840565b61019b565b6040516100c595949392919061093e565b60405180910390f35b6100e860048036038101906100e39190610a55565b610299565b005b3480156100f657600080fd5b50610111600480360381019061010c9190610aef565b610619565b60405161012295949392919061093e565b60405180910390f35b34801561013757600080fd5b50610152600480360381019061014d9190610aef565b610727565b60405161015f9190610b2b565b60405180910390f35b34801561017457600080fd5b5061017d61074b565b60405161018a9190610b46565b60405180910390f35b600047905090565b60036020528060005260406000206000915090508060000160009054906101000a900473ffffffffffffffffffffffffffffffffffffffff16908060010160009054906101000a900473ffffffffffffffffffffffffffffffffffffffff169080600201805461020a90610b90565b80601f016020809104026020016040519081016040528092919081815260200182805461023690610b90565b80156102835780601f1061025857610100808354040283529160200191610283565b820191906000526020600020905b81548152906001019060200180831161026657829003601f168201915b5050505050908060030154908060040154905085565b60008686868686866040516020016102b696959493929190610c69565b6040516020818303038152906040528051906020012090506102d6610771565b87816000019073ffffffffffffffffffffffffffffffffffffffff16908173ffffffffffffffffffffffffffffffffffffffff168152505086816020019073ffffffffffffffffffffffffffffffffffffffff16908173ffffffffffffffffffffffffffffffffffffffff168152505085858080601f016020809104026020016040519081016040528093929190818152602001838380828437600081840152601f19601f8201169050808301925050505050505081604001819052508381606001818152505082816080018181525050806003600084815260200190815260200160002060008201518160000160006101000a81548173ffffffffffffffffffffffffffffffffffffffff021916908373ffffffffffffffffffffffffffffffffffffffff16021790555060208201518160010160006101000a81548173ffffffffffffffffffffffffffffffffffffffff021916908373ffffffffffffffffffffffffffffffffffffffff160217905550604082015181600201908161045e9190610ea1565b506060820151816003015560808201518160040155905050600481908060018154018082558091505060019003906000526020600020906005020160009091909190915060008201518160000160006101000a81548173ffffffffffffffffffffffffffffffffffffffff021916908373ffffffffffffffffffffffffffffffffffffffff16021790555060208201518160010160006101000a81548173ffffffffffffffffffffffffffffffffffffffff021916908373ffffffffffffffffffffffffffffffffffffffff16021790555060408201518160020190816105459190610ea1565b506060820151816003015560808201518160040155505060058290806001815401808255809150506001900390600052602060002001600090919091909150557fbb617a7103191aed1f9d36c01fbf28bf9f0c847c038eccdf012be8cc528776e0828989898989896040516105c09796959493929190610fa0565b60405180910390a18673ffffffffffffffffffffffffffffffffffffffff166108fc349081150290604051600060405180830381858888f1935050505015801561060e573d6000803e3d6000fd5b505050505050505050565b6004818154811061062957600080fd5b90600052602060002090600502016000915090508060000160009054906101000a900473ffffffffffffffffffffffffffffffffffffffff16908060010160009054906101000a900473ffffffffffffffffffffffffffffffffffffffff169080600201805461069890610b90565b80601f01602080910402602001604051908101604052809291908181526020018280546106c490610b90565b80156107115780601f106106e657610100808354040283529160200191610711565b820191906000526020600020905b8154815290600101906020018083116106f457829003601f168201915b5050505050908060030154908060040154905085565b6005818154811061073757600080fd5b906000526020600020016000915090505481565b600160009054906101000a900473ffffffffffffffffffffffffffffffffffffffff1681565b6040518060a00160405280600073ffffffffffffffffffffffffffffffffffffffff168152602001600073ffffffffffffffffffffffffffffffffffffffff1681526020016060815260200160008152602001600081525090565b6000819050919050565b6107df816107cc565b82525050565b60006020820190506107fa60008301846107d6565b92915050565b600080fd5b600080fd5b6000819050919050565b61081d8161080a565b811461082857600080fd5b50565b60008135905061083a81610814565b92915050565b60006020828403121561085657610855610800565b5b60006108648482850161082b565b91505092915050565b600073ffffffffffffffffffffffffffffffffffffffff82169050919050565b60006108988261086d565b9050919050565b6108a88161088d565b82525050565b600081519050919050565b600082825260208201905092915050565b60005b838110156108e85780820151818401526020810190506108cd565b60008484015250505050565b6000601f19601f8301169050919050565b6000610910826108ae565b61091a81856108b9565b935061092a8185602086016108ca565b610933816108f4565b840191505092915050565b600060a082019050610953600083018861089f565b610960602083018761089f565b81810360408301526109728186610905565b905061098160608301856107d6565b61098e60808301846107d6565b9695505050505050565b6109a18161088d565b81146109ac57600080fd5b50565b6000813590506109be81610998565b92915050565b600080fd5b600080fd5b600080fd5b60008083601f8401126109e9576109e86109c4565b5b8235905067ffffffffffffffff811115610a0657610a056109c9565b5b602083019150836001820283011115610a2257610a216109ce565b5b9250929050565b610a32816107cc565b8114610a3d57600080fd5b50565b600081359050610a4f81610a29565b92915050565b60008060008060008060a08789031215610a7257610a71610800565b5b6000610a8089828a016109af565b9650506020610a9189828a016109af565b955050604087013567ffffffffffffffff811115610ab257610ab1610805565b5b610abe89828a016109d3565b94509450506060610ad189828a01610a40565b9250506080610ae289828a01610a40565b9150509295509295509295565b600060208284031215610b0557610b04610800565b5b6000610b1384828501610a40565b91505092915050565b610b258161080a565b82525050565b6000602082019050610b406000830184610b1c565b92915050565b6000602082019050610b5b600083018461089f565b92915050565b7f4e487b7100000000000000000000000000000000000000000000000000000000600052602260045260246000fd5b60006002820490506001821680610ba857607f821691505b602082108103610bbb57610bba610b61565b5b50919050565b60008160601b9050919050565b6000610bd982610bc1565b9050919050565b6000610beb82610bce565b9050919050565b610c03610bfe8261088d565b610be0565b82525050565b600081905092915050565b82818337600083830152505050565b6000610c2f8385610c09565b9350610c3c838584610c14565b82840190509392505050565b6000819050919050565b610c63610c5e826107cc565b610c48565b82525050565b6000610c758289610bf2565b601482019150610c858288610bf2565b601482019150610c96828688610c23565b9150610ca28285610c52565b602082019150610cb28284610c52565b602082019150819050979650505050505050565b7f4e487b7100000000000000000000000000000000000000000000000000000000600052604160045260246000fd5b60008190508160005260206000209050919050565b60006020601f8301049050919050565b600082821b905092915050565b600060088302610d577fffffffffffffffffffffffffffffffffffffffffffffffffffffffffffffffff82610d1a565b610d618683610d1a565b95508019841693508086168417925050509392505050565b6000819050919050565b6000610d9e610d99610d94846107cc565b610d79565b6107cc565b9050919050565b6000819050919050565b610db883610d83565b610dcc610dc482610da5565b848454610d27565b825550505050565b600090565b610de1610dd4565b610dec818484610daf565b505050565b5b81811015610e1057610e05600082610dd9565b600181019050610df2565b5050565b601f821115610e5557610e2681610cf5565b610e2f84610d0a565b81016020851015610e3e578190505b610e52610e4a85610d0a565b830182610df1565b50505b505050565b600082821c905092915050565b6000610e7860001984600802610e5a565b1980831691505092915050565b6000610e918383610e67565b9150826002028217905092915050565b610eaa826108ae565b67ffffffffffffffff811115610ec357610ec2610cc6565b5b610ecd8254610b90565b610ed8828285610e14565b600060209050601f831160018114610f0b5760008415610ef9578287015190505b610f038582610e85565b865550610f6b565b601f198416610f1986610cf5565b60005b82811015610f4157848901518255600182019150602085019450602081019050610f1c565b86831015610f5e5784890151610f5a601f891682610e67565b8355505b6001600288020188555050505b505050505050565b6000610f7f83856108b9565b9350610f8c838584610c14565b610f95836108f4565b840190509392505050565b600060c082019050610fb5600083018a610b1c565b610fc2602083018961089f565b610fcf604083018861089f565b8181036060830152610fe2818688610f73565b9050610ff160808301856107d6565b610ffe60a08301846107d6565b9897505050505050505056fea2646970667358221220494ac5c7455da3e4546ba357ae225b4c40ff1c6bdcd2c8b3d4cd10a09d7ee7c064736f6c63430008130033",
  "immutableReferences": {},
  "source": "// SPDX-License-Identifier: MIT\npragma solidity >=0.4.22 <0.9.0;\n\nimport \"./Whitelist.sol\";\n\n// enum OrderStatus {Not_Started, Order_Placed, Vendor_Action, Vendor_Delivered, Order_Completed}\n// interface IWhiteList {\n//     function addAddress(address _address) external;\n//     function checkAddress(address _address) external view;\n// }\n\ncontract Purchase {\n    struct Order {\n        address buyer;\n        address vendor;\n        string product;\n        uint256 qty;\n        uint256 amount;\n        // OrderStatus status;\n    } //order in the blockchain\n    string name;\n    address public whitelistAddress=0xb88A67885023A5503F6d145c3207eE4d4C31Dbb1;\n\n    Whitelist whitelist = Whitelist(whitelistAddress);\n\n    mapping(bytes32 => Order) public orderMapping;\n    Order[] public orderList;\n    bytes32[] public orderListAddresses;\n\n    event NewOrderPlaced(bytes32 orderId, address buyer, address vendor, string product, uint256 quantity, uint256 amount);\n\n    receive() external payable {}\n\n    fallback() external payable {}\n\n    function getBalance() public view returns (uint) {\n        return address(this).balance;\n    }\n\n    function placePurchaseOrder(address _buyer, address _vendor, string calldata _product, uint256 _quantity, uint256 _amount) public payable {\n    \n    //    whitelist.checkAddress(_buyer); //implements the whitelist\n\n        bytes32 orderID = keccak256(abi.encodePacked(_buyer,_vendor,_product,_quantity,_amount));\n        Order memory purchase_order;\n        // require(purchase_order.status == OrderStatus.Not_Started, \"Order has already been started\");\n        purchase_order.buyer = _buyer;\n        purchase_order.vendor = _vendor;\n        purchase_order.product = _product;\n        purchase_order.qty = _quantity;\n        purchase_order.amount = _amount;\n        // purchase_order.status = OrderStatus.Order_Placed;\n\n        orderMapping[orderID] = purchase_order;\n        orderList.push(purchase_order);\n        orderListAddresses.push(orderID);\n\n        emit NewOrderPlaced(orderID, _buyer, _vendor, _product, _quantity, _amount);\n\n        // payable(_vendor).transfer(_amount);\n        payable(_vendor).transfer(msg.value);\n\n    }\n\n}",
  "sourcePath": "C:\\Users\\nethra\\Downloads\\BL-FinancialSupplyChain-DApp-master\\contracts\\Purchase.sol",
  "compiler": {
    "name": "solc",
    "version": "0.8.19+commit.7dd6d404.Emscripten.clang"
  },
  "schemaVersion": "3.4.12",
  "updatedAt": "2023-04-25T05:03:43.401Z",
  "networkType": "ethereum",
  "devdoc": {
    "kind": "dev",
    "methods": {},
    "version": 1
  },
  "userdoc": {
    "kind": "user",
    "methods": {},
    "version": 1
  }
}