{
  "contractName": "Received",
  "abi": [
    {
      "anonymous": false,
      "inputs": [
        {
          "indexed": false,
          "internalType": "bytes32",
          "name": "billID",
          "type": "bytes32"
        },
        {
          "indexed": false,
          "internalType": "bytes32",
          "name": "shipID",
          "type": "bytes32"
        },
        {
          "indexed": false,
          "internalType": "bytes32",
          "name": "orderID",
          "type": "bytes32"
        },
        {
          "indexed": false,
          "internalType": "address",
          "name": "buyer",
          "type": "address"
        },
        {
          "indexed": false,
          "internalType": "address",
          "name": "vendor",
          "type": "address"
        },
        {
          "indexed": false,
          "internalType": "string",
          "name": "product",
          "type": "string"
        },
        {
          "indexed": false,
          "internalType": "uint8",
          "name": "num_days",
          "type": "uint8"
        },
        {
          "indexed": false,
          "internalType": "uint256",
          "name": "qty",
          "type": "uint256"
        },
        {
          "indexed": false,
          "internalType": "uint256",
          "name": "amount",
          "type": "uint256"
        }
      ],
      "name": "ProductReceived",
      "type": "event"
    },
    {
      "inputs": [
        {
          "internalType": "uint256",
          "name": "",
          "type": "uint256"
        }
      ],
      "name": "ReceiptList",
      "outputs": [
        {
          "internalType": "bytes32",
          "name": "shipID",
          "type": "bytes32"
        },
        {
          "internalType": "bytes32",
          "name": "orderID",
          "type": "bytes32"
        },
        {
          "internalType": "address",
          "name": "buyer",
          "type": "address"
        },
        {
          "internalType": "address",
          "name": "vendor",
          "type": "address"
        },
        {
          "internalType": "string",
          "name": "product",
          "type": "string"
        },
        {
          "internalType": "uint8",
          "name": "num_days",
          "type": "uint8"
        },
        {
          "internalType": "uint256",
          "name": "qty",
          "type": "uint256"
        },
        {
          "internalType": "uint256",
          "name": "amount",
          "type": "uint256"
        }
      ],
      "stateMutability": "view",
      "type": "function",
      "constant": true
    },
    {
      "inputs": [
        {
          "internalType": "uint256",
          "name": "",
          "type": "uint256"
        }
      ],
      "name": "ReceiptListAddresses",
      "outputs": [
        {
          "internalType": "bytes32",
          "name": "",
          "type": "bytes32"
        }
      ],
      "stateMutability": "view",
      "type": "function",
      "constant": true
    },
    {
      "inputs": [
        {
          "internalType": "bytes32",
          "name": "",
          "type": "bytes32"
        }
      ],
      "name": "receiptMapping",
      "outputs": [
        {
          "internalType": "bytes32",
          "name": "shipID",
          "type": "bytes32"
        },
        {
          "internalType": "bytes32",
          "name": "orderID",
          "type": "bytes32"
        },
        {
          "internalType": "address",
          "name": "buyer",
          "type": "address"
        },
        {
          "internalType": "address",
          "name": "vendor",
          "type": "address"
        },
        {
          "internalType": "string",
          "name": "product",
          "type": "string"
        },
        {
          "internalType": "uint8",
          "name": "num_days",
          "type": "uint8"
        },
        {
          "internalType": "uint256",
          "name": "qty",
          "type": "uint256"
        },
        {
          "internalType": "uint256",
          "name": "amount",
          "type": "uint256"
        }
      ],
      "stateMutability": "view",
      "type": "function",
      "constant": true
    },
    {
      "inputs": [
        {
          "internalType": "bytes32",
          "name": "_shipID",
          "type": "bytes32"
        },
        {
          "internalType": "bytes32",
          "name": "_orderID",
          "type": "bytes32"
        },
        {
          "internalType": "address",
          "name": "_buyer",
          "type": "address"
        },
        {
          "internalType": "address",
          "name": "_vendor",
          "type": "address"
        },
        {
          "internalType": "string",
          "name": "_product",
          "type": "string"
        },
        {
          "internalType": "uint8",
          "name": "_num_days",
          "type": "uint8"
        },
        {
          "internalType": "uint256",
          "name": "_qty",
          "type": "uint256"
        },
        {
          "internalType": "uint256",
          "name": "_amount",
          "type": "uint256"
        }
      ],
      "name": "receive_product",
      "outputs": [],
      "stateMutability": "nonpayable",
      "type": "function"
    }
  ],
  "bytecode": "0x608060405234801561001057600080fd5b5061107a806100206000396000f3fe608060405234801561001057600080fd5b506004361061004c5760003560e01c80631d1ebe4714610051578063559e189c146100815780638aa7fa881461009d578063986447d5146100d4575b600080fd5b61006b6004803603810190610066919061081e565b61010b565b6040516100789190610864565b60405180910390f35b61009b600480360381019061009691906109a7565b61012f565b005b6100b760048036038101906100b2919061081e565b61051a565b6040516100cb989796959493929190610b3a565b60405180910390f35b6100ee60048036038101906100e99190610bbf565b610647565b604051610102989796959493929190610b3a565b60405180910390f35b6002818154811061011b57600080fd5b906000526020600020016000915090505481565b6000898989896040516020016101489493929190610c55565b604051602081830303815290604052805190602001209050610168610764565b8a8160000181815250508981602001818152505088816040019073ffffffffffffffffffffffffffffffffffffffff16908173ffffffffffffffffffffffffffffffffffffffff168152505087816060019073ffffffffffffffffffffffffffffffffffffffff16908173ffffffffffffffffffffffffffffffffffffffff168152505086868080601f016020809104026020016040519081016040528093929190818152602001838380828437600081840152601f19601f820116905080830192505050505050508160800181905250848160a0019060ff16908160ff1681525050838160c0018181525050828160e001818152505080600080848152602001908152602001600020600082015181600001556020820151816001015560408201518160020160006101000a81548173ffffffffffffffffffffffffffffffffffffffff021916908373ffffffffffffffffffffffffffffffffffffffff16021790555060608201518160030160006101000a81548173ffffffffffffffffffffffffffffffffffffffff021916908373ffffffffffffffffffffffffffffffffffffffff16021790555060808201518160040190816103299190610ede565b5060a08201518160050160006101000a81548160ff021916908360ff16021790555060c0820151816006015560e082015181600701559050506001819080600181540180825580915050600190039060005260206000209060080201600090919091909150600082015181600001556020820151816001015560408201518160020160006101000a81548173ffffffffffffffffffffffffffffffffffffffff021916908373ffffffffffffffffffffffffffffffffffffffff16021790555060608201518160030160006101000a81548173ffffffffffffffffffffffffffffffffffffffff021916908373ffffffffffffffffffffffffffffffffffffffff16021790555060808201518160040190816104459190610ede565b5060a08201518160050160006101000a81548160ff021916908360ff16021790555060c0820151816006015560e08201518160070155505060028290806001815401808255809150506001900390600052602060002001600090919091909150557f7dc1d4599c42f706161da43e2225538c6fde5148b5a910606b48f3192b4b206882826000015183602001518460400151856060015186608001518760a001518860c001518960e0015160405161050599989796959493929190610fb0565b60405180910390a15050505050505050505050565b6001818154811061052a57600080fd5b90600052602060002090600802016000915090508060000154908060010154908060020160009054906101000a900473ffffffffffffffffffffffffffffffffffffffff16908060030160009054906101000a900473ffffffffffffffffffffffffffffffffffffffff16908060040180546105a590610d01565b80601f01602080910402602001604051908101604052809291908181526020018280546105d190610d01565b801561061e5780601f106105f35761010080835404028352916020019161061e565b820191906000526020600020905b81548152906001019060200180831161060157829003601f168201915b5050505050908060050160009054906101000a900460ff16908060060154908060070154905088565b60006020528060005260406000206000915090508060000154908060010154908060020160009054906101000a900473ffffffffffffffffffffffffffffffffffffffff16908060030160009054906101000a900473ffffffffffffffffffffffffffffffffffffffff16908060040180546106c290610d01565b80601f01602080910402602001604051908101604052809291908181526020018280546106ee90610d01565b801561073b5780601f106107105761010080835404028352916020019161073b565b820191906000526020600020905b81548152906001019060200180831161071e57829003601f168201915b5050505050908060050160009054906101000a900460ff16908060060154908060070154905088565b6040518061010001604052806000801916815260200160008019168152602001600073ffffffffffffffffffffffffffffffffffffffff168152602001600073ffffffffffffffffffffffffffffffffffffffff16815260200160608152602001600060ff16815260200160008152602001600081525090565b600080fd5b600080fd5b6000819050919050565b6107fb816107e8565b811461080657600080fd5b50565b600081359050610818816107f2565b92915050565b600060208284031215610834576108336107de565b5b600061084284828501610809565b91505092915050565b6000819050919050565b61085e8161084b565b82525050565b60006020820190506108796000830184610855565b92915050565b6108888161084b565b811461089357600080fd5b50565b6000813590506108a58161087f565b92915050565b600073ffffffffffffffffffffffffffffffffffffffff82169050919050565b60006108d6826108ab565b9050919050565b6108e6816108cb565b81146108f157600080fd5b50565b600081359050610903816108dd565b92915050565b600080fd5b600080fd5b600080fd5b60008083601f84011261092e5761092d610909565b5b8235905067ffffffffffffffff81111561094b5761094a61090e565b5b60208301915083600182028301111561096757610966610913565b5b9250929050565b600060ff82169050919050565b6109848161096e565b811461098f57600080fd5b50565b6000813590506109a18161097b565b92915050565b60008060008060008060008060006101008a8c0312156109ca576109c96107de565b5b60006109d88c828d01610896565b99505060206109e98c828d01610896565b98505060406109fa8c828d016108f4565b9750506060610a0b8c828d016108f4565b96505060808a013567ffffffffffffffff811115610a2c57610a2b6107e3565b5b610a388c828d01610918565b955095505060a0610a4b8c828d01610992565b93505060c0610a5c8c828d01610809565b92505060e0610a6d8c828d01610809565b9150509295985092959850929598565b610a86816108cb565b82525050565b600081519050919050565b600082825260208201905092915050565b60005b83811015610ac6578082015181840152602081019050610aab565b60008484015250505050565b6000601f19601f8301169050919050565b6000610aee82610a8c565b610af88185610a97565b9350610b08818560208601610aa8565b610b1181610ad2565b840191505092915050565b610b258161096e565b82525050565b610b34816107e8565b82525050565b600061010082019050610b50600083018b610855565b610b5d602083018a610855565b610b6a6040830189610a7d565b610b776060830188610a7d565b8181036080830152610b898187610ae3565b9050610b9860a0830186610b1c565b610ba560c0830185610b2b565b610bb260e0830184610b2b565b9998505050505050505050565b600060208284031215610bd557610bd46107de565b5b6000610be384828501610896565b91505092915050565b6000819050919050565b610c07610c028261084b565b610bec565b82525050565b60008160601b9050919050565b6000610c2582610c0d565b9050919050565b6000610c3782610c1a565b9050919050565b610c4f610c4a826108cb565b610c2c565b82525050565b6000610c618287610bf6565b602082019150610c718286610bf6565b602082019150610c818285610c3e565b601482019150610c918284610c3e565b60148201915081905095945050505050565b7f4e487b7100000000000000000000000000000000000000000000000000000000600052604160045260246000fd5b7f4e487b7100000000000000000000000000000000000000000000000000000000600052602260045260246000fd5b60006002820490506001821680610d1957607f821691505b602082108103610d2c57610d2b610cd2565b5b50919050565b60008190508160005260206000209050919050565b60006020601f8301049050919050565b600082821b905092915050565b600060088302610d947fffffffffffffffffffffffffffffffffffffffffffffffffffffffffffffffff82610d57565b610d9e8683610d57565b95508019841693508086168417925050509392505050565b6000819050919050565b6000610ddb610dd6610dd1846107e8565b610db6565b6107e8565b9050919050565b6000819050919050565b610df583610dc0565b610e09610e0182610de2565b848454610d64565b825550505050565b600090565b610e1e610e11565b610e29818484610dec565b505050565b5b81811015610e4d57610e42600082610e16565b600181019050610e2f565b5050565b601f821115610e9257610e6381610d32565b610e6c84610d47565b81016020851015610e7b578190505b610e8f610e8785610d47565b830182610e2e565b50505b505050565b600082821c905092915050565b6000610eb560001984600802610e97565b1980831691505092915050565b6000610ece8383610ea4565b9150826002028217905092915050565b610ee782610a8c565b67ffffffffffffffff811115610f0057610eff610ca3565b5b610f0a8254610d01565b610f15828285610e51565b600060209050601f831160018114610f485760008415610f36578287015190505b610f408582610ec2565b865550610fa8565b601f198416610f5686610d32565b60005b82811015610f7e57848901518255600182019150602085019450602081019050610f59565b86831015610f9b5784890151610f97601f891682610ea4565b8355505b6001600288020188555050505b505050505050565b600061012082019050610fc6600083018c610855565b610fd3602083018b610855565b610fe0604083018a610855565b610fed6060830189610a7d565b610ffa6080830188610a7d565b81810360a083015261100c8187610ae3565b905061101b60c0830186610b1c565b61102860e0830185610b2b565b611036610100830184610b2b565b9a995050505050505050505056fea26469706673582212207501a68d4cbcf8ba37da0c2285ef2e2c27f975c38e129804e103c1d7ed04d79664736f6c63430008130033",
  "immutableReferences": {},
  "source": "// SPDX-License-Identifier: MIT\npragma solidity >=0.4.22 <0.9.0;\n\ncontract Received {\n\n    //listen to the shipped event in past events and execute product received and store event in ganache\n    //bill generated with Bill ID\n    struct Receipt {\n        bytes32 shipID;\n        bytes32 orderID;\n        address buyer;\n        address vendor;\n        string product;\n        uint8 num_days;\n        uint256 qty;\n        uint256 amount;\n    }\n\n    event ProductReceived(\n         bytes32 billID, \n         bytes32 shipID, \n         bytes32 orderID,\n         address buyer, \n         address vendor, \n         string product, \n         uint8 num_days, \n         uint256 qty,\n         uint256 amount);\n\n    mapping (bytes32 => Receipt) public receiptMapping;\n    Receipt[] public ReceiptList;\n    bytes32[] public ReceiptListAddresses;\n\n    function receive_product(bytes32 _shipID, bytes32 _orderID, address _buyer, address _vendor, string calldata _product, \n    uint8 _num_days, uint256 _qty, uint256 _amount) public {\n\n        bytes32 billID = keccak256(abi.encodePacked(_shipID, _orderID, _buyer, _vendor));\n        Receipt memory rec;\n\n        rec.shipID = _shipID;\n        rec.orderID = _orderID;\n        rec.buyer = _buyer;\n        rec.vendor = _vendor;\n        rec.product = _product;\n        rec.num_days = _num_days;\n        rec.qty = _qty;\n        rec.amount = _amount;\n        receiptMapping[billID] = rec;\n        ReceiptList.push(rec);\n        ReceiptListAddresses.push(billID);\n        \n        emit ProductReceived(billID, rec.shipID, rec.orderID, rec.buyer, rec.vendor, rec.product, rec.num_days, rec.qty, rec.amount);\n    }\n}",
  "sourcePath": "C:\\Users\\nethra\\Downloads\\BL-FinancialSupplyChain-DApp-master\\contracts\\Received.sol",
  "compiler": {
    "name": "solc",
    "version": "0.8.19+commit.7dd6d404.Emscripten.clang"
  },
  "schemaVersion": "3.4.12",
  "updatedAt": "2023-04-25T05:03:48.159Z",
  "networkType": "ethereum",
  "devdoc": {
    "kind": "dev",
    "methods": {},
    "version": 1
  },
  "userdoc": {
    "kind": "user",
    "methods": {},
    "version": 1
  }
}