{
  "contractName": "Shipping",
  "abi": [
    {
      "anonymous": false,
      "inputs": [
        {
          "indexed": false,
          "internalType": "bytes32",
          "name": "shipID",
          "type": "bytes32"
        },
        {
          "indexed": false,
          "internalType": "uint8",
          "name": "num_days",
          "type": "uint8"
        },
        {
          "indexed": false,
          "internalType": "bytes32",
          "name": "orderID",
          "type": "bytes32"
        },
        {
          "indexed": false,
          "internalType": "address",
          "name": "buyer",
          "type": "address"
        },
        {
          "indexed": false,
          "internalType": "address",
          "name": "vendor",
          "type": "address"
        },
        {
          "indexed": false,
          "internalType": "string",
          "name": "product",
          "type": "string"
        },
        {
          "indexed": false,
          "internalType": "uint256",
          "name": "qty",
          "type": "uint256"
        },
        {
          "indexed": false,
          "internalType": "uint256",
          "name": "amount",
          "type": "uint256"
        }
      ],
      "name": "ProductShipped",
      "type": "event"
    },
    {
      "inputs": [
        {
          "internalType": "uint256",
          "name": "",
          "type": "uint256"
        }
      ],
      "name": "shipAddresses",
      "outputs": [
        {
          "internalType": "bytes32",
          "name": "",
          "type": "bytes32"
        }
      ],
      "stateMutability": "view",
      "type": "function",
      "constant": true
    },
    {
      "inputs": [
        {
          "internalType": "bytes32",
          "name": "",
          "type": "bytes32"
        }
      ],
      "name": "shipMapping",
      "outputs": [
        {
          "internalType": "bytes32",
          "name": "orderID",
          "type": "bytes32"
        },
        {
          "internalType": "address",
          "name": "buyer",
          "type": "address"
        },
        {
          "internalType": "address",
          "name": "vendor",
          "type": "address"
        },
        {
          "internalType": "string",
          "name": "product",
          "type": "string"
        },
        {
          "internalType": "uint256",
          "name": "qty",
          "type": "uint256"
        },
        {
          "internalType": "uint256",
          "name": "amount",
          "type": "uint256"
        }
      ],
      "stateMutability": "view",
      "type": "function",
      "constant": true
    },
    {
      "inputs": [
        {
          "internalType": "uint256",
          "name": "",
          "type": "uint256"
        }
      ],
      "name": "ships",
      "outputs": [
        {
          "internalType": "bytes32",
          "name": "orderID",
          "type": "bytes32"
        },
        {
          "internalType": "address",
          "name": "buyer",
          "type": "address"
        },
        {
          "internalType": "address",
          "name": "vendor",
          "type": "address"
        },
        {
          "internalType": "string",
          "name": "product",
          "type": "string"
        },
        {
          "internalType": "uint256",
          "name": "qty",
          "type": "uint256"
        },
        {
          "internalType": "uint256",
          "name": "amount",
          "type": "uint256"
        }
      ],
      "stateMutability": "view",
      "type": "function",
      "constant": true
    },
    {
      "inputs": [],
      "name": "generateRandomNumber",
      "outputs": [
        {
          "internalType": "uint8",
          "name": "",
          "type": "uint8"
        }
      ],
      "stateMutability": "view",
      "type": "function",
      "constant": true
    },
    {
      "inputs": [
        {
          "internalType": "bytes32",
          "name": "_orderID",
          "type": "bytes32"
        },
        {
          "internalType": "address",
          "name": "_buyer",
          "type": "address"
        },
        {
          "internalType": "address",
          "name": "_vendor",
          "type": "address"
        },
        {
          "internalType": "string",
          "name": "_product",
          "type": "string"
        },
        {
          "internalType": "uint256",
          "name": "_qty",
          "type": "uint256"
        },
        {
          "internalType": "uint256",
          "name": "_amount",
          "type": "uint256"
        }
      ],
      "name": "ship",
      "outputs": [],
      "stateMutability": "nonpayable",
      "type": "function"
    }
  ],
  "bytecode": "0x608060405234801561001057600080fd5b506110dd806100206000396000f3fe608060405234801561001057600080fd5b50600436106100575760003560e01c80630101d0d81461005c57806315ba69ce146100785780633dca54a8146100a85780634d4e8dfa146100dd578063773a115414610112575b600080fd5b610076600480360381019061007191906108ce565b610130565b005b610092600480360381019061008d919061097d565b6104a2565b60405161009f91906109b9565b60405180910390f35b6100c260048036038101906100bd91906109d4565b6104c6565b6040516100d496959493929190610aaf565b60405180910390f35b6100f760048036038101906100f2919061097d565b6105ca565b60405161010996959493929190610aaf565b60405180910390f35b61011a6106de565b6040516101279190610b33565b60405180910390f35b600087878760405160200161014793929190610bb7565b604051602081830303815290604052805190602001209050610167610730565b8881600001818152505087816020019073ffffffffffffffffffffffffffffffffffffffff16908173ffffffffffffffffffffffffffffffffffffffff168152505086816040019073ffffffffffffffffffffffffffffffffffffffff16908173ffffffffffffffffffffffffffffffffffffffff168152505085858080601f016020809104026020016040519081016040528093929190818152602001838380828437600081840152601f19601f82011690508083019250505050505050816060018190525083816080018181525050828160a0018181525050806000808481526020019081526020016000206000820151816000015560208201518160010160006101000a81548173ffffffffffffffffffffffffffffffffffffffff021916908373ffffffffffffffffffffffffffffffffffffffff16021790555060408201518160020160006101000a81548173ffffffffffffffffffffffffffffffffffffffff021916908373ffffffffffffffffffffffffffffffffffffffff16021790555060608201518160030190816103029190610e2f565b506080820151816004015560a0820151816005015590505060018190806001815401808255809150506001900390600052602060002090600602016000909190919091506000820151816000015560208201518160010160006101000a81548173ffffffffffffffffffffffffffffffffffffffff021916908373ffffffffffffffffffffffffffffffffffffffff16021790555060408201518160020160006101000a81548173ffffffffffffffffffffffffffffffffffffffff021916908373ffffffffffffffffffffffffffffffffffffffff16021790555060608201518160030190816103f39190610e2f565b506080820151816004015560a08201518160050155505060028290806001815401808255809150506001900390600052602060002001600090919091909150557fdfa23ceca93c14622c63ff7bcd44abbf1c7617d24c3786752f3a30359777391d8261045d6106de565b836000015184602001518560400151866060015187608001518860a0015160405161048f989796959493929190610f01565b60405180910390a1505050505050505050565b600281815481106104b257600080fd5b906000526020600020016000915090505481565b60006020528060005260406000206000915090508060000154908060010160009054906101000a900473ffffffffffffffffffffffffffffffffffffffff16908060020160009054906101000a900473ffffffffffffffffffffffffffffffffffffffff169080600301805461053b90610c52565b80601f016020809104026020016040519081016040528092919081815260200182805461056790610c52565b80156105b45780601f10610589576101008083540402835291602001916105b4565b820191906000526020600020905b81548152906001019060200180831161059757829003601f168201915b5050505050908060040154908060050154905086565b600181815481106105da57600080fd5b90600052602060002090600602016000915090508060000154908060010160009054906101000a900473ffffffffffffffffffffffffffffffffffffffff16908060020160009054906101000a900473ffffffffffffffffffffffffffffffffffffffff169080600301805461064f90610c52565b80601f016020809104026020016040519081016040528092919081815260200182805461067b90610c52565b80156106c85780601f1061069d576101008083540402835291602001916106c8565b820191906000526020600020905b8154815290600101906020018083116106ab57829003601f168201915b5050505050908060040154908060050154905086565b6000804244336040516020016106f693929190610fa7565b6040516020818303038152906040528051906020012060001c90506001600a826107209190611013565b61072a9190611073565b91505090565b6040518060c0016040528060008019168152602001600073ffffffffffffffffffffffffffffffffffffffff168152602001600073ffffffffffffffffffffffffffffffffffffffff1681526020016060815260200160008152602001600081525090565b600080fd5b600080fd5b6000819050919050565b6107b28161079f565b81146107bd57600080fd5b50565b6000813590506107cf816107a9565b92915050565b600073ffffffffffffffffffffffffffffffffffffffff82169050919050565b6000610800826107d5565b9050919050565b610810816107f5565b811461081b57600080fd5b50565b60008135905061082d81610807565b92915050565b600080fd5b600080fd5b600080fd5b60008083601f84011261085857610857610833565b5b8235905067ffffffffffffffff81111561087557610874610838565b5b6020830191508360018202830111156108915761089061083d565b5b9250929050565b6000819050919050565b6108ab81610898565b81146108b657600080fd5b50565b6000813590506108c8816108a2565b92915050565b600080600080600080600060c0888a0312156108ed576108ec610795565b5b60006108fb8a828b016107c0565b975050602061090c8a828b0161081e565b965050604061091d8a828b0161081e565b955050606088013567ffffffffffffffff81111561093e5761093d61079a565b5b61094a8a828b01610842565b9450945050608061095d8a828b016108b9565b92505060a061096e8a828b016108b9565b91505092959891949750929550565b60006020828403121561099357610992610795565b5b60006109a1848285016108b9565b91505092915050565b6109b38161079f565b82525050565b60006020820190506109ce60008301846109aa565b92915050565b6000602082840312156109ea576109e9610795565b5b60006109f8848285016107c0565b91505092915050565b610a0a816107f5565b82525050565b600081519050919050565b600082825260208201905092915050565b60005b83811015610a4a578082015181840152602081019050610a2f565b60008484015250505050565b6000601f19601f8301169050919050565b6000610a7282610a10565b610a7c8185610a1b565b9350610a8c818560208601610a2c565b610a9581610a56565b840191505092915050565b610aa981610898565b82525050565b600060c082019050610ac460008301896109aa565b610ad16020830188610a01565b610ade6040830187610a01565b8181036060830152610af08186610a67565b9050610aff6080830185610aa0565b610b0c60a0830184610aa0565b979650505050505050565b600060ff82169050919050565b610b2d81610b17565b82525050565b6000602082019050610b486000830184610b24565b92915050565b6000819050919050565b610b69610b648261079f565b610b4e565b82525050565b60008160601b9050919050565b6000610b8782610b6f565b9050919050565b6000610b9982610b7c565b9050919050565b610bb1610bac826107f5565b610b8e565b82525050565b6000610bc38286610b58565b602082019150610bd38285610ba0565b601482019150610be38284610ba0565b601482019150819050949350505050565b7f4e487b7100000000000000000000000000000000000000000000000000000000600052604160045260246000fd5b7f4e487b7100000000000000000000000000000000000000000000000000000000600052602260045260246000fd5b60006002820490506001821680610c6a57607f821691505b602082108103610c7d57610c7c610c23565b5b50919050565b60008190508160005260206000209050919050565b60006020601f8301049050919050565b600082821b905092915050565b600060088302610ce57fffffffffffffffffffffffffffffffffffffffffffffffffffffffffffffffff82610ca8565b610cef8683610ca8565b95508019841693508086168417925050509392505050565b6000819050919050565b6000610d2c610d27610d2284610898565b610d07565b610898565b9050919050565b6000819050919050565b610d4683610d11565b610d5a610d5282610d33565b848454610cb5565b825550505050565b600090565b610d6f610d62565b610d7a818484610d3d565b505050565b5b81811015610d9e57610d93600082610d67565b600181019050610d80565b5050565b601f821115610de357610db481610c83565b610dbd84610c98565b81016020851015610dcc578190505b610de0610dd885610c98565b830182610d7f565b50505b505050565b600082821c905092915050565b6000610e0660001984600802610de8565b1980831691505092915050565b6000610e1f8383610df5565b9150826002028217905092915050565b610e3882610a10565b67ffffffffffffffff811115610e5157610e50610bf4565b5b610e5b8254610c52565b610e66828285610da2565b600060209050601f831160018114610e995760008415610e87578287015190505b610e918582610e13565b865550610ef9565b601f198416610ea786610c83565b60005b82811015610ecf57848901518255600182019150602085019450602081019050610eaa565b86831015610eec5784890151610ee8601f891682610df5565b8355505b6001600288020188555050505b505050505050565b600061010082019050610f17600083018b6109aa565b610f24602083018a610b24565b610f3160408301896109aa565b610f3e6060830188610a01565b610f4b6080830187610a01565b81810360a0830152610f5d8186610a67565b9050610f6c60c0830185610aa0565b610f7960e0830184610aa0565b9998505050505050505050565b6000819050919050565b610fa1610f9c82610898565b610f86565b82525050565b6000610fb38286610f90565b602082019150610fc38285610f90565b602082019150610fd38284610ba0565b601482019150819050949350505050565b7f4e487b7100000000000000000000000000000000000000000000000000000000600052601260045260246000fd5b600061101e82610898565b915061102983610898565b92508261103957611038610fe4565b5b828206905092915050565b7f4e487b7100000000000000000000000000000000000000000000000000000000600052601160045260246000fd5b600061107e82610898565b915061108983610898565b92508282019050808211156110a1576110a0611044565b5b9291505056fea26469706673582212203226ecf2c15a39175450a9a76ab975af95e961ad936187c2c7c344ba9bb1161164736f6c63430008130033",
  "immutableReferences": {},
  "source": "// SPDX-License-Identifier: MIT\r\npragma solidity >=0.4.22 <0.9.0;\r\n\r\ncontract Shipping {\r\n\r\n    //contract to emit a event stating that goods have been shipped\r\n    //pass the return values of event into this contract - > call the product shipped event with same parameters and store in ganache\r\n    //create a shipping ID\r\n\r\n    struct Ship {\r\n        bytes32 orderID;\r\n        address buyer;\r\n        address vendor;\r\n        string product;\r\n        uint256 qty;\r\n        uint256 amount;\r\n    }\r\n\r\n    mapping (bytes32 => Ship) public shipMapping;\r\n    Ship[] public ships;\r\n    bytes32[] public shipAddresses;\r\n\r\n    event ProductShipped(bytes32 shipID, uint8 num_days, bytes32 orderID, address buyer, address vendor, string product, uint256 qty, uint256 amount);\r\n\r\n    function generateRandomNumber() public view returns (uint8) \r\n    {\r\n        uint256 randomNumber = uint256(keccak256(abi.encodePacked(block.timestamp, block.prevrandao, msg.sender)));\r\n        return uint8((randomNumber % 10) + 1);\r\n    }\r\n\r\n    function ship(bytes32 _orderID, address _buyer, address _vendor, string calldata _product, uint256 _qty, uint256 _amount) public { \r\n\r\n        bytes32 ship_order_ID = keccak256(abi.encodePacked(_orderID,_buyer,_vendor));\r\n\r\n        Ship memory ship_order;\r\n        ship_order.orderID = _orderID;\r\n        ship_order.buyer = _buyer;\r\n        ship_order.vendor = _vendor;\r\n        ship_order.product = _product;\r\n        ship_order.qty = _qty;\r\n        ship_order.amount = _amount;\r\n        shipMapping[ship_order_ID] = ship_order;\r\n        ships.push(ship_order);\r\n        shipAddresses.push(ship_order_ID);\r\n\r\n        emit ProductShipped(ship_order_ID, generateRandomNumber(), ship_order.orderID, ship_order.buyer, ship_order.vendor, ship_order.product, ship_order.qty, ship_order.amount);\r\n    }\r\n}",
  "sourcePath": "c:\\Users\\adiku\\BL-FinancialSupplyChain-DApp\\contracts\\Shipping.sol",
  "compiler": {
    "name": "solc",
    "version": "0.8.19+commit.7dd6d404.Emscripten.clang"
  },
  "schemaVersion": "3.4.13",
  "updatedAt": "2023-03-14T21:01:00.809Z",
  "networkType": "ethereum",
  "devdoc": {
    "kind": "dev",
    "methods": {},
    "version": 1
  },
  "userdoc": {
    "kind": "user",
    "methods": {},
    "version": 1
  }
}