{
  "contractName": "WhitelistRequest",
  "abi": [
    {
      "inputs": [
        {
          "internalType": "uint256",
          "name": "",
          "type": "uint256"
        }
      ],
      "name": "WhitelistRequestList",
      "outputs": [
        {
          "internalType": "address",
          "name": "",
          "type": "address"
        }
      ],
      "stateMutability": "view",
      "type": "function",
      "constant": true
    },
    {
      "inputs": [],
      "name": "getRequestedAddresses",
      "outputs": [
        {
          "internalType": "address[]",
          "name": "",
          "type": "address[]"
        }
      ],
      "stateMutability": "view",
      "type": "function",
      "constant": true
    },
    {
      "inputs": [
        {
          "internalType": "address",
          "name": "_address",
          "type": "address"
        }
      ],
      "name": "addRequestedAddress",
      "outputs": [],
      "stateMutability": "nonpayable",
      "type": "function"
    },
    {
      "inputs": [
        {
          "internalType": "address",
          "name": "_address",
          "type": "address"
        }
      ],
      "name": "checkRequestedAddress",
      "outputs": [],
      "stateMutability": "view",
      "type": "function",
      "constant": true
    }
  ],
  "bytecode": "0x608060405234801561001057600080fd5b50610670806100206000396000f3fe608060405234801561001057600080fd5b506004361061004c5760003560e01c80637702516314610051578063943d79a014610081578063d1f3c6d21461009f578063f79922e7146100bb575b600080fd5b61006b6004803603810190610066919061032f565b6100d7565b604051610078919061039d565b60405180910390f35b610089610116565b6040516100969190610476565b60405180910390f35b6100b960048036038101906100b491906104c4565b6101a4565b005b6100d560048036038101906100d091906104c4565b61020a565b005b600081815481106100e757600080fd5b906000526020600020016000915054906101000a900473ffffffffffffffffffffffffffffffffffffffff1681565b6060600080548060200260200160405190810160405280929190818152602001828054801561019a57602002820191906000526020600020905b8160009054906101000a900473ffffffffffffffffffffffffffffffffffffffff1673ffffffffffffffffffffffffffffffffffffffff1681526020019060010190808311610150575b5050505050905090565b6000819080600181540180825580915050600190039060005260206000200160009091909190916101000a81548173ffffffffffffffffffffffffffffffffffffffff021916908373ffffffffffffffffffffffffffffffffffffffff16021790555050565b6000805b6000805490508110156102a8578273ffffffffffffffffffffffffffffffffffffffff1660008281548110610246576102456104f1565b5b9060005260206000200160009054906101000a900473ffffffffffffffffffffffffffffffffffffffff1673ffffffffffffffffffffffffffffffffffffffff160361029557600191506102a8565b80806102a09061054f565b91505061020e565b5060011515811515146102f0576040517f08c379a00000000000000000000000000000000000000000000000000000000081526004016102e79061061a565b60405180910390fd5b5050565b600080fd5b6000819050919050565b61030c816102f9565b811461031757600080fd5b50565b60008135905061032981610303565b92915050565b600060208284031215610345576103446102f4565b5b60006103538482850161031a565b91505092915050565b600073ffffffffffffffffffffffffffffffffffffffff82169050919050565b60006103878261035c565b9050919050565b6103978161037c565b82525050565b60006020820190506103b2600083018461038e565b92915050565b600081519050919050565b600082825260208201905092915050565b6000819050602082019050919050565b6103ed8161037c565b82525050565b60006103ff83836103e4565b60208301905092915050565b6000602082019050919050565b6000610423826103b8565b61042d81856103c3565b9350610438836103d4565b8060005b8381101561046957815161045088826103f3565b975061045b8361040b565b92505060018101905061043c565b5085935050505092915050565b600060208201905081810360008301526104908184610418565b905092915050565b6104a18161037c565b81146104ac57600080fd5b50565b6000813590506104be81610498565b92915050565b6000602082840312156104da576104d96102f4565b5b60006104e8848285016104af565b91505092915050565b7f4e487b7100000000000000000000000000000000000000000000000000000000600052603260045260246000fd5b7f4e487b7100000000000000000000000000000000000000000000000000000000600052601160045260246000fd5b600061055a826102f9565b91507fffffffffffffffffffffffffffffffffffffffffffffffffffffffffffffffff820361058c5761058b610520565b5b600182019050919050565b600082825260208201905092915050565b7f41646472657373206e6f742070726573656e7420696e2074686520776869746560008201527f6c69737420726571756573742e00000000000000000000000000000000000000602082015250565b6000610604602d83610597565b915061060f826105a8565b604082019050919050565b60006020820190508181036000830152610633816105f7565b905091905056fea2646970667358221220e394c5d51ee92bfdf085d7a132bf2772a3c52b149524ce12033d41293b9bb99464736f6c63430008130033",
  "immutableReferences": {},
  "source": "// SPDX-License-Identifier: MIT\npragma solidity >=0.4.22 <0.9.0;\n\n\n//from home, on button click, should add to whitelistrequest list - if already added to whitelist, say part of whitelist, \n//if already requested to add, then alert, already requested\n//from admin, get requested addresses and render in the dashboard\n//when approving address, call whitelist contract -> add addresses method to add to the whitelist\n\n\ncontract WhitelistRequest {\n\n    address[] public WhitelistRequestList;\n\n    function getRequestedAddresses() public view returns (address[] memory) {\n        return WhitelistRequestList;\n    }\n\n    function addRequestedAddress(address _address) external {\n        WhitelistRequestList.push(_address);\n    }\n\n    function checkRequestedAddress(address _address) external view {\n        bool found = false;\n        for (uint i = 0; i < WhitelistRequestList.length; i++) {\n            if (WhitelistRequestList[i] == _address) {\n                found = true;\n                break;\n            }\n        }\n        require(found == true, \"Address not present in the whitelist request.\");\n    }\n}",
  "sourcePath": "C:\\Users\\nethra\\Downloads\\BL-FinancialSupplyChain-DApp-master\\contracts\\WhitelistRequest.sol",
  "compiler": {
    "name": "solc",
    "version": "0.8.19+commit.7dd6d404.Emscripten.clang"
  },
  "schemaVersion": "3.4.12",
  "updatedAt": "2023-04-25T05:03:52.874Z",
  "networkType": "ethereum",
  "devdoc": {
    "kind": "dev",
    "methods": {},
    "version": 1
  },
  "userdoc": {
    "kind": "user",
    "methods": {},
    "version": 1
  }
}