{
  "contractName": "Whitelist",
  "abi": [
    {
      "inputs": [
        {
          "internalType": "uint256",
          "name": "",
          "type": "uint256"
        }
      ],
      "name": "allowedAddresses",
      "outputs": [
        {
          "internalType": "address",
          "name": "",
          "type": "address"
        }
      ],
      "stateMutability": "view",
      "type": "function",
      "constant": true
    },
    {
      "inputs": [],
      "name": "getAddresses",
      "outputs": [
        {
          "internalType": "address[]",
          "name": "",
          "type": "address[]"
        }
      ],
      "stateMutability": "view",
      "type": "function",
      "constant": true
    },
    {
      "inputs": [
        {
          "internalType": "address",
          "name": "_address",
          "type": "address"
        }
      ],
      "name": "addAddress",
      "outputs": [],
      "stateMutability": "nonpayable",
      "type": "function"
    },
    {
      "inputs": [
        {
          "internalType": "address",
          "name": "_address",
          "type": "address"
        }
      ],
      "name": "checkAddress",
      "outputs": [],
      "stateMutability": "view",
      "type": "function",
      "constant": true
    }
  ],
  "bytecode": "0x608060405234801561001057600080fd5b50610670806100206000396000f3fe608060405234801561001057600080fd5b506004361061004c5760003560e01c80630ddcfe8e1461005157806338eada1c1461006d57806364b55bed14610089578063a39fac12146100b9575b600080fd5b61006b60048036038101906100669190610357565b6100d7565b005b61008760048036038101906100829190610357565b6101c1565b005b6100a3600480360381019061009e91906103ba565b610227565b6040516100b091906103f6565b60405180910390f35b6100c1610266565b6040516100ce91906104cf565b60405180910390f35b6000805b600080549050811015610175578273ffffffffffffffffffffffffffffffffffffffff1660008281548110610113576101126104f1565b5b9060005260206000200160009054906101000a900473ffffffffffffffffffffffffffffffffffffffff1673ffffffffffffffffffffffffffffffffffffffff16036101625760019150610175565b808061016d9061054f565b9150506100db565b5060011515811515146101bd576040517f08c379a00000000000000000000000000000000000000000000000000000000081526004016101b49061061a565b60405180910390fd5b5050565b6000819080600181540180825580915050600190039060005260206000200160009091909190916101000a81548173ffffffffffffffffffffffffffffffffffffffff021916908373ffffffffffffffffffffffffffffffffffffffff16021790555050565b6000818154811061023757600080fd5b906000526020600020016000915054906101000a900473ffffffffffffffffffffffffffffffffffffffff1681565b606060008054806020026020016040519081016040528092919081815260200182805480156102ea57602002820191906000526020600020905b8160009054906101000a900473ffffffffffffffffffffffffffffffffffffffff1673ffffffffffffffffffffffffffffffffffffffff16815260200190600101908083116102a0575b5050505050905090565b600080fd5b600073ffffffffffffffffffffffffffffffffffffffff82169050919050565b6000610324826102f9565b9050919050565b61033481610319565b811461033f57600080fd5b50565b6000813590506103518161032b565b92915050565b60006020828403121561036d5761036c6102f4565b5b600061037b84828501610342565b91505092915050565b6000819050919050565b61039781610384565b81146103a257600080fd5b50565b6000813590506103b48161038e565b92915050565b6000602082840312156103d0576103cf6102f4565b5b60006103de848285016103a5565b91505092915050565b6103f081610319565b82525050565b600060208201905061040b60008301846103e7565b92915050565b600081519050919050565b600082825260208201905092915050565b6000819050602082019050919050565b61044681610319565b82525050565b6000610458838361043d565b60208301905092915050565b6000602082019050919050565b600061047c82610411565b610486818561041c565b93506104918361042d565b8060005b838110156104c25781516104a9888261044c565b97506104b483610464565b925050600181019050610495565b5085935050505092915050565b600060208201905081810360008301526104e98184610471565b905092915050565b7f4e487b7100000000000000000000000000000000000000000000000000000000600052603260045260246000fd5b7f4e487b7100000000000000000000000000000000000000000000000000000000600052601160045260246000fd5b600061055a82610384565b91507fffffffffffffffffffffffffffffffffffffffffffffffffffffffffffffffff820361058c5761058b610520565b5b600182019050919050565b600082825260208201905092915050565b7f41646472657373206e6f742070726573656e7420696e2074686520776869746560008201527f6c6973742e000000000000000000000000000000000000000000000000000000602082015250565b6000610604602583610597565b915061060f826105a8565b604082019050919050565b60006020820190508181036000830152610633816105f7565b905091905056fea26469706673582212205fb79f14ef3aebaef1fc2510b28852039209cc89d67880a0bb279dfd82af3a3764736f6c63430008130033",
  "immutableReferences": {},
  "source": "// SPDX-License-Identifier: MIT\npragma solidity >=0.4.22 <0.9.0;\n\ncontract Whitelist {\n\n    address[] public allowedAddresses;\n\n    function getAddresses() public view returns (address[] memory) {\n        return allowedAddresses;\n    }\n\n    function addAddress(address _address) external {\n        allowedAddresses.push(_address);\n    }\n\n    function checkAddress(address _address) external view {\n        bool found = false;\n        for (uint i = 0; i < allowedAddresses.length; i++) {\n            if (allowedAddresses[i] == _address) {\n                found = true;\n                break;\n            }\n        }\n        require(found == true, \"Address not present in the whitelist.\");\n    }\n}",
  "sourcePath": "C:\\Users\\nethra\\Downloads\\BL-FinancialSupplyChain-DApp-master\\contracts\\Whitelist.sol",
  "compiler": {
    "name": "solc",
    "version": "0.8.19+commit.7dd6d404.Emscripten.clang"
  },
  "schemaVersion": "3.4.12",
  "updatedAt": "2023-04-25T05:03:51.302Z",
  "networkType": "ethereum",
  "devdoc": {
    "kind": "dev",
    "methods": {},
    "version": 1
  },
  "userdoc": {
    "kind": "user",
    "methods": {},
    "version": 1
  }
}