{
  "contractName": "Loan",
  "abi": [
    {
      "anonymous": false,
      "inputs": [
        {
          "indexed": false,
          "internalType": "bytes32",
          "name": "loanID",
          "type": "bytes32"
        },
        {
          "indexed": false,
          "internalType": "address",
          "name": "borrower",
          "type": "address"
        },
        {
          "indexed": false,
          "internalType": "address",
          "name": "provider",
          "type": "address"
        },
        {
          "indexed": false,
          "internalType": "uint256",
          "name": "amount",
          "type": "uint256"
        },
        {
          "indexed": false,
          "internalType": "uint256",
          "name": "interest_rate",
          "type": "uint256"
        }
      ],
      "name": "NewLoanPlaced",
      "type": "event"
    },
    {
      "stateMutability": "payable",
      "type": "fallback"
    },
    {
      "inputs": [
        {
          "internalType": "uint256",
          "name": "",
          "type": "uint256"
        }
      ],
      "name": "LoanRequestAddresses",
      "outputs": [
        {
          "internalType": "bytes32",
          "name": "",
          "type": "bytes32"
        }
      ],
      "stateMutability": "view",
      "type": "function"
    },
    {
      "inputs": [
        {
          "internalType": "uint256",
          "name": "",
          "type": "uint256"
        }
      ],
      "name": "LoanRequestList",
      "outputs": [
        {
          "internalType": "address payable",
          "name": "borrower",
          "type": "address"
        },
        {
          "internalType": "address",
          "name": "provider",
          "type": "address"
        },
        {
          "internalType": "uint256",
          "name": "amount",
          "type": "uint256"
        },
        {
          "internalType": "bool",
          "name": "approved",
          "type": "bool"
        },
        {
          "internalType": "uint256",
          "name": "interest_rate",
          "type": "uint256"
        }
      ],
      "stateMutability": "view",
      "type": "function"
    },
    {
      "inputs": [
        {
          "internalType": "bytes32",
          "name": "",
          "type": "bytes32"
        }
      ],
      "name": "LoanRequestMapping",
      "outputs": [
        {
          "internalType": "address payable",
          "name": "borrower",
          "type": "address"
        },
        {
          "internalType": "address",
          "name": "provider",
          "type": "address"
        },
        {
          "internalType": "uint256",
          "name": "amount",
          "type": "uint256"
        },
        {
          "internalType": "bool",
          "name": "approved",
          "type": "bool"
        },
        {
          "internalType": "uint256",
          "name": "interest_rate",
          "type": "uint256"
        }
      ],
      "stateMutability": "view",
      "type": "function"
    },
    {
      "stateMutability": "payable",
      "type": "receive"
    },
    {
      "inputs": [],
      "name": "getBalance",
      "outputs": [
        {
          "internalType": "uint256",
          "name": "",
          "type": "uint256"
        }
      ],
      "stateMutability": "view",
      "type": "function"
    },
    {
      "inputs": [
        {
          "internalType": "address payable",
          "name": "_borrower",
          "type": "address"
        },
        {
          "internalType": "address",
          "name": "_provider",
          "type": "address"
        },
        {
          "internalType": "uint256",
          "name": "_interest_rate",
          "type": "uint256"
        },
        {
          "internalType": "uint256",
          "name": "_amount",
          "type": "uint256"
        }
      ],
      "name": "loan_request",
      "outputs": [],
      "stateMutability": "payable",
      "type": "function"
    }
  ],
  "bytecode": "0x608060405234801561001057600080fd5b50610b64806100206000396000f3fe60806040526004361061004e5760003560e01c806312065fe01461005757806353137f5e146100825780635ee47617146100bf578063953da172146100db5780639ffca9e51461011c57610055565b3661005557005b005b34801561006357600080fd5b5061006c61015d565b6040516100799190610664565b60405180910390f35b34801561008e57600080fd5b506100a960048036038101906100a491906106b0565b610165565b6040516100b691906106f6565b60405180910390f35b6100d960048036038101906100d491906107ad565b610189565b005b3480156100e757600080fd5b5061010260048036038101906100fd91906106b0565b6104d8565b60405161011395949392919061084d565b60405180910390f35b34801561012857600080fd5b50610143600480360381019061013e91906108cc565b61056b565b60405161015495949392919061084d565b60405180910390f35b600047905090565b6002818154811061017557600080fd5b906000526020600020016000915090505481565b6101916105ee565b6000858585856040516020016101aa949392919061098b565b60405160208183030381529060405280519060200120905085826000019073ffffffffffffffffffffffffffffffffffffffff16908173ffffffffffffffffffffffffffffffffffffffff168152505084826020019073ffffffffffffffffffffffffffffffffffffffff16908173ffffffffffffffffffffffffffffffffffffffff16815250508282604001818152505083826080018181525050600182908060018154018082558091505060019003906000526020600020906005020160009091909190915060008201518160000160006101000a81548173ffffffffffffffffffffffffffffffffffffffff021916908373ffffffffffffffffffffffffffffffffffffffff16021790555060208201518160010160006101000a81548173ffffffffffffffffffffffffffffffffffffffff021916908373ffffffffffffffffffffffffffffffffffffffff1602179055506040820151816002015560608201518160030160006101000a81548160ff0219169083151502179055506080820151816004015550508160008083815260200190815260200160002060008201518160000160006101000a81548173ffffffffffffffffffffffffffffffffffffffff021916908373ffffffffffffffffffffffffffffffffffffffff16021790555060208201518160010160006101000a81548173ffffffffffffffffffffffffffffffffffffffff021916908373ffffffffffffffffffffffffffffffffffffffff1602179055506040820151816002015560608201518160030160006101000a81548160ff021916908315150217905550608082015181600401559050506002819080600181540180825580915050600190039060005260206000200160009091909190915055828573ffffffffffffffffffffffffffffffffffffffff16311015610491576040517f08c379a000000000000000000000000000000000000000000000000000000000815260040161048890610a5c565b60405180910390fd5b7f3274fa134d6489555e69d4c3d7d6238aad2a8a99983f45f57b8a1d6981a1b17481878787876040516104c8959493929190610adb565b60405180910390a1505050505050565b600181815481106104e857600080fd5b90600052602060002090600502016000915090508060000160009054906101000a900473ffffffffffffffffffffffffffffffffffffffff16908060010160009054906101000a900473ffffffffffffffffffffffffffffffffffffffff16908060020154908060030160009054906101000a900460ff16908060040154905085565b60006020528060005260406000206000915090508060000160009054906101000a900473ffffffffffffffffffffffffffffffffffffffff16908060010160009054906101000a900473ffffffffffffffffffffffffffffffffffffffff16908060020154908060030160009054906101000a900460ff16908060040154905085565b6040518060a00160405280600073ffffffffffffffffffffffffffffffffffffffff168152602001600073ffffffffffffffffffffffffffffffffffffffff16815260200160008152602001600015158152602001600081525090565b6000819050919050565b61065e8161064b565b82525050565b60006020820190506106796000830184610655565b92915050565b600080fd5b61068d8161064b565b811461069857600080fd5b50565b6000813590506106aa81610684565b92915050565b6000602082840312156106c6576106c561067f565b5b60006106d48482850161069b565b91505092915050565b6000819050919050565b6106f0816106dd565b82525050565b600060208201905061070b60008301846106e7565b92915050565b600073ffffffffffffffffffffffffffffffffffffffff82169050919050565b600061073c82610711565b9050919050565b61074c81610731565b811461075757600080fd5b50565b60008135905061076981610743565b92915050565b600061077a82610711565b9050919050565b61078a8161076f565b811461079557600080fd5b50565b6000813590506107a781610781565b92915050565b600080600080608085870312156107c7576107c661067f565b5b60006107d58782880161075a565b94505060206107e687828801610798565b93505060406107f78782880161069b565b92505060606108088782880161069b565b91505092959194509250565b61081d81610731565b82525050565b61082c8161076f565b82525050565b60008115159050919050565b61084781610832565b82525050565b600060a0820190506108626000830188610814565b61086f6020830187610823565b61087c6040830186610655565b610889606083018561083e565b6108966080830184610655565b9695505050505050565b6108a9816106dd565b81146108b457600080fd5b50565b6000813590506108c6816108a0565b92915050565b6000602082840312156108e2576108e161067f565b5b60006108f0848285016108b7565b91505092915050565b60008160601b9050919050565b6000610911826108f9565b9050919050565b600061092382610906565b9050919050565b61093b61093682610731565b610918565b82525050565b600061094c82610906565b9050919050565b61096461095f8261076f565b610941565b82525050565b6000819050919050565b6109856109808261064b565b61096a565b82525050565b6000610997828761092a565b6014820191506109a78286610953565b6014820191506109b78285610974565b6020820191506109c78284610974565b60208201915081905095945050505050565b600082825260208201905092915050565b7f50726f766964657220646f65736e2774206861766520656e6f7567682066756e60008201527f6473000000000000000000000000000000000000000000000000000000000000602082015250565b6000610a466022836109d9565b9150610a51826109ea565b604082019050919050565b60006020820190508181036000830152610a7581610a39565b9050919050565b6000819050919050565b6000610aa1610a9c610a9784610711565b610a7c565b610711565b9050919050565b6000610ab382610a86565b9050919050565b6000610ac582610aa8565b9050919050565b610ad581610aba565b82525050565b600060a082019050610af060008301886106e7565b610afd6020830187610acc565b610b0a6040830186610823565b610b176060830185610655565b610b246080830184610655565b969550505050505056fea26469706673582212204fd6741a104d822c1da810959887e60fb2189e6373929e8f70d65183fc997ea764736f6c63430008130033",
  "immutableReferences": {},
  "source": "// SPDX-License-Identifier: MIT\r\npragma solidity >=0.4.22 <0.9.0;\r\n\r\n//  enum LoanStatus {Pending, Approved, Rejected}\r\n\r\ncontract Loan {\r\n    \r\n    struct LoanRequest {\r\n        address payable borrower;\r\n        address provider;\r\n        uint256 amount;    \r\n        // LoanStatus status;\r\n        bool approved;\r\n        uint256 interest_rate; //128 bytes and 10 decimal places   \r\n    } \r\n\r\n    // LoanRequest public loan;\r\n\r\n    // constructor(uint256 _amount, uint256 _interest_rate) {\r\n    //     Loan memory init = Loan(payable(msg.sender), address(0x0), _amount, LoanStatus.Pending, false, _interest_rate);\r\n    //     // borrower = payable(msg.sender);\r\n    //     // provider = address(0x0);\r\n    //     // interest_rate = _interest_rate;\r\n    //     // amount = _amount;\r\n    //     // approved = false;\r\n    //     loan = init;\r\n    // }\r\n\r\n    receive() external payable {}\r\n\r\n    fallback() external payable {}\r\n\r\n    function getBalance() public view returns (uint) {\r\n        return address(this).balance;\r\n    }\r\n\r\n mapping(bytes32 => LoanRequest) public LoanRequestMapping;\r\n LoanRequest[] public LoanRequestList;\r\n bytes32[] public LoanRequestAddresses;\r\n\r\n event NewLoanPlaced(bytes32 loanID, address borrower, address provider, uint256 amount, uint256 interest_rate);\r\n\r\n    function loan_request(address payable _borrower, address _provider, uint256 _interest_rate, uint256 _amount) public payable {\r\n        LoanRequest memory loan;\r\n        bytes32 loanID = keccak256(abi.encodePacked(_borrower,_provider,_interest_rate,_amount));\r\n        \r\n        loan.borrower = _borrower;\r\n        loan.provider = _provider;\r\n        loan.amount = _amount;\r\n        loan.interest_rate = _interest_rate;\r\n        LoanRequestList.push(loan);\r\n\r\n        LoanRequestMapping[loanID] = loan;\r\n        LoanRequestAddresses.push(loanID);\r\n\r\n        require(address(_provider).balance >= _amount, \"Provider doesn't have enough funds\");\r\n        // loan.status = LoanStatus.Approved;\r\n\r\n        //loan.borrower.transfer(msg.value); //transfer to the borrower\r\n        //payable(address(this)).transfer(msg.value); //transfer to the contract\r\n\r\n        emit NewLoanPlaced(loanID, _borrower, _provider, _interest_rate, _amount);\r\n    }\r\n}\r\n",
  "sourcePath": "C:\\Users\\adiku\\BL-FinancialSupplyChain-DApp\\contracts\\Loan.sol",
  "compiler": {
    "name": "solc",
    "version": "0.8.19+commit.7dd6d404.Emscripten.clang"
  },
  "schemaVersion": "3.4.10",
  "updatedAt": "2023-03-16T03:53:03.677Z",
  "devdoc": {
    "kind": "dev",
    "methods": {},
    "version": 1
  },
  "userdoc": {
    "kind": "user",
    "methods": {},
    "version": 1
  }
}