{
  "contractName": "Loan",
  "abi": [
    {
      "anonymous": false,
      "inputs": [
        {
          "indexed": false,
          "internalType": "address",
          "name": "borrower",
          "type": "address"
        },
        {
          "indexed": false,
          "internalType": "address",
          "name": "provider",
          "type": "address"
        },
        {
          "indexed": false,
          "internalType": "uint256",
          "name": "amount",
          "type": "uint256"
        },
        {
          "indexed": false,
          "internalType": "uint256",
          "name": "interest_rate",
          "type": "uint256"
        }
      ],
      "name": "NewLoanPlaced",
      "type": "event"
    },
    {
      "stateMutability": "payable",
      "type": "fallback",
      "payable": true
    },
    {
      "inputs": [],
      "name": "loan",
      "outputs": [
        {
          "internalType": "address payable",
          "name": "borrower",
          "type": "address"
        },
        {
          "internalType": "address",
          "name": "provider",
          "type": "address"
        },
        {
          "internalType": "uint256",
          "name": "amount",
          "type": "uint256"
        },
        {
          "internalType": "bool",
          "name": "approved",
          "type": "bool"
        },
        {
          "internalType": "uint256",
          "name": "interest_rate",
          "type": "uint256"
        }
      ],
      "stateMutability": "view",
      "type": "function",
      "constant": true
    },
    {
      "stateMutability": "payable",
      "type": "receive",
      "payable": true
    },
    {
      "inputs": [],
      "name": "getBalance",
      "outputs": [
        {
          "internalType": "uint256",
          "name": "",
          "type": "uint256"
        }
      ],
      "stateMutability": "view",
      "type": "function",
      "constant": true
    },
    {
      "inputs": [
        {
          "internalType": "address payable",
          "name": "_borrower",
          "type": "address"
        },
        {
          "internalType": "address",
          "name": "_provider",
          "type": "address"
        },
        {
          "internalType": "uint256",
          "name": "_interest_rate",
          "type": "uint256"
        },
        {
          "internalType": "uint256",
          "name": "_amount",
          "type": "uint256"
        }
      ],
      "name": "approve_loan",
      "outputs": [],
      "stateMutability": "payable",
      "type": "function",
      "payable": true
    }
  ],
  "bytecode": "0x608060405234801561001057600080fd5b50610697806100206000396000f3fe6080604052600436106100385760003560e01c806312065fe01461004157806327b44cdf1461006c578063d285b7b4146100885761003f565b3661003f57005b005b34801561004d57600080fd5b506100566100b7565b604051610063919061033f565b60405180910390f35b61008660048036038101906100819190610427565b6100bf565b005b34801561009457600080fd5b5061009d6102b5565b6040516100ae9594939291906104c7565b60405180910390f35b600047905090565b836000800160006101000a81548173ffffffffffffffffffffffffffffffffffffffff021916908373ffffffffffffffffffffffffffffffffffffffff16021790555082600060010160006101000a81548173ffffffffffffffffffffffffffffffffffffffff021916908373ffffffffffffffffffffffffffffffffffffffff1602179055508060006002018190555081600060040181905550808373ffffffffffffffffffffffffffffffffffffffff163110156101b4576040517f08c379a00000000000000000000000000000000000000000000000000000000081526004016101ab9061059d565b60405180910390fd5b6000800160009054906101000a900473ffffffffffffffffffffffffffffffffffffffff1673ffffffffffffffffffffffffffffffffffffffff166108fc349081150290604051600060405180830381858888f1935050505015801561021e573d6000803e3d6000fd5b507faf1775e506cd00d286be024192d7fefaf543d2bb4fc7a84b56dee0fd1469a0f46000800160009054906101000a900473ffffffffffffffffffffffffffffffffffffffff16600060010160009054906101000a900473ffffffffffffffffffffffffffffffffffffffff166000600201546000600401546040516102a7949392919061061c565b60405180910390a150505050565b60008060000160009054906101000a900473ffffffffffffffffffffffffffffffffffffffff16908060010160009054906101000a900473ffffffffffffffffffffffffffffffffffffffff16908060020154908060030160009054906101000a900460ff16908060040154905085565b6000819050919050565b61033981610326565b82525050565b60006020820190506103546000830184610330565b92915050565b600080fd5b600073ffffffffffffffffffffffffffffffffffffffff82169050919050565b600061038a8261035f565b9050919050565b61039a8161037f565b81146103a557600080fd5b50565b6000813590506103b781610391565b92915050565b60006103c88261035f565b9050919050565b6103d8816103bd565b81146103e357600080fd5b50565b6000813590506103f5816103cf565b92915050565b61040481610326565b811461040f57600080fd5b50565b600081359050610421816103fb565b92915050565b600080600080608085870312156104415761044061035a565b5b600061044f878288016103a8565b9450506020610460878288016103e6565b935050604061047187828801610412565b925050606061048287828801610412565b91505092959194509250565b6104978161037f565b82525050565b6104a6816103bd565b82525050565b60008115159050919050565b6104c1816104ac565b82525050565b600060a0820190506104dc600083018861048e565b6104e9602083018761049d565b6104f66040830186610330565b61050360608301856104b8565b6105106080830184610330565b9695505050505050565b600082825260208201905092915050565b7f50726f766964657220646f65736e2774206861766520656e6f7567682066756e60008201527f6473000000000000000000000000000000000000000000000000000000000000602082015250565b600061058760228361051a565b91506105928261052b565b604082019050919050565b600060208201905081810360008301526105b68161057a565b9050919050565b6000819050919050565b60006105e26105dd6105d88461035f565b6105bd565b61035f565b9050919050565b60006105f4826105c7565b9050919050565b6000610606826105e9565b9050919050565b610616816105fb565b82525050565b6000608082019050610631600083018761060d565b61063e602083018661049d565b61064b6040830185610330565b6106586060830184610330565b9594505050505056fea2646970667358221220570ae7e17a4b616e450d5ddd4f8633c792d11a91e150739c0a0833c04b21230464736f6c63430008130033",
  "immutableReferences": {},
  "source": "// SPDX-License-Identifier: MIT\r\npragma solidity >=0.4.22 <0.9.0;\r\n\r\n//  enum LoanStatus {Pending, Approved, Rejected}\r\n\r\ncontract Loan {\r\n    \r\n    struct LoanRequest {\r\n        address payable borrower;\r\n        address provider;\r\n        uint256 amount;    \r\n        // LoanStatus status;\r\n        bool approved;\r\n        uint256 interest_rate; //128 bytes and 10 decimal places   \r\n    } \r\n\r\n    LoanRequest public loan;\r\n\r\n    // constructor(uint256 _amount, uint256 _interest_rate) {\r\n    //     Loan memory init = Loan(payable(msg.sender), address(0x0), _amount, LoanStatus.Pending, false, _interest_rate);\r\n    //     // borrower = payable(msg.sender);\r\n    //     // provider = address(0x0);\r\n    //     // interest_rate = _interest_rate;\r\n    //     // amount = _amount;\r\n    //     // approved = false;\r\n    //     loan = init;\r\n    // }\r\n\r\n    receive() external payable {}\r\n\r\n    fallback() external payable {}\r\n\r\n    function getBalance() public view returns (uint) {\r\n        return address(this).balance;\r\n    }\r\n\r\n event NewLoanPlaced(address borrower, address provider, uint256 amount, uint256 interest_rate);\r\n\r\n    function approve_loan(address payable _borrower, address _provider, uint256 _interest_rate, uint256 _amount) public payable {\r\n\r\n        loan.borrower = _borrower;\r\n        loan.provider = _provider;\r\n        loan.amount = _amount;\r\n        loan.interest_rate = _interest_rate;\r\n       \r\n        require(address(_provider).balance >= _amount, \"Provider doesn't have enough funds\");\r\n        // loan.status = LoanStatus.Approved;\r\n\r\n        loan.borrower.transfer(msg.value);\r\n\r\n        emit NewLoanPlaced(loan.borrower, loan.provider, loan.amount, loan.interest_rate);\r\n    }\r\n}\r\n",
  "sourcePath": "c:\\Users\\adiku\\BL-FinancialSupplyChain-DApp\\contracts\\Loan.sol",
  "compiler": {
    "name": "solc",
    "version": "0.8.19+commit.7dd6d404.Emscripten.clang"
  },
  "schemaVersion": "3.4.13",
  "updatedAt": "2023-03-13T19:33:58.127Z",
  "networkType": "ethereum",
  "devdoc": {
    "kind": "dev",
    "methods": {},
    "version": 1
  },
  "userdoc": {
    "kind": "user",
    "methods": {},
    "version": 1
  }
}