{
  "contractName": "LoanApproved",
  "abi": [
    {
      "anonymous": false,
      "inputs": [
        {
          "indexed": false,
          "internalType": "bytes32",
          "name": "receiptID",
          "type": "bytes32"
        },
        {
          "indexed": false,
          "internalType": "bytes32",
          "name": "loanID",
          "type": "bytes32"
        },
        {
          "indexed": false,
          "internalType": "address",
          "name": "borrower",
          "type": "address"
        },
        {
          "indexed": false,
          "internalType": "address",
          "name": "provider",
          "type": "address"
        },
        {
          "indexed": false,
          "internalType": "uint256",
          "name": "interest_rate",
          "type": "uint256"
        },
        {
          "indexed": false,
          "internalType": "uint256",
          "name": "amount",
          "type": "uint256"
        }
      ],
      "name": "LoanApprovedEvent",
      "type": "event"
    },
    {
      "stateMutability": "payable",
      "type": "fallback"
    },
    {
      "inputs": [
        {
          "internalType": "uint256",
          "name": "",
          "type": "uint256"
        }
      ],
      "name": "LoanReceiptAddresses",
      "outputs": [
        {
          "internalType": "bytes32",
          "name": "",
          "type": "bytes32"
        }
      ],
      "stateMutability": "view",
      "type": "function"
    },
    {
      "inputs": [
        {
          "internalType": "bytes32",
          "name": "",
          "type": "bytes32"
        }
      ],
      "name": "LoanReceiptMapping",
      "outputs": [
        {
          "internalType": "bytes32",
          "name": "loanID",
          "type": "bytes32"
        },
        {
          "internalType": "address",
          "name": "borrower",
          "type": "address"
        },
        {
          "internalType": "address",
          "name": "provider",
          "type": "address"
        },
        {
          "internalType": "uint256",
          "name": "interest_rate",
          "type": "uint256"
        },
        {
          "internalType": "uint256",
          "name": "amount",
          "type": "uint256"
        }
      ],
      "stateMutability": "view",
      "type": "function"
    },
    {
      "inputs": [
        {
          "internalType": "uint256",
          "name": "",
          "type": "uint256"
        }
      ],
      "name": "LoanReceipts",
      "outputs": [
        {
          "internalType": "bytes32",
          "name": "loanID",
          "type": "bytes32"
        },
        {
          "internalType": "address",
          "name": "borrower",
          "type": "address"
        },
        {
          "internalType": "address",
          "name": "provider",
          "type": "address"
        },
        {
          "internalType": "uint256",
          "name": "interest_rate",
          "type": "uint256"
        },
        {
          "internalType": "uint256",
          "name": "amount",
          "type": "uint256"
        }
      ],
      "stateMutability": "view",
      "type": "function"
    },
    {
      "stateMutability": "payable",
      "type": "receive"
    },
    {
      "inputs": [],
      "name": "getBalance",
      "outputs": [
        {
          "internalType": "uint256",
          "name": "",
          "type": "uint256"
        }
      ],
      "stateMutability": "view",
      "type": "function"
    },
    {
      "inputs": [
        {
          "internalType": "bytes32",
          "name": "_loanID",
          "type": "bytes32"
        },
        {
          "internalType": "address",
          "name": "_borrower",
          "type": "address"
        },
        {
          "internalType": "address",
          "name": "_provider",
          "type": "address"
        },
        {
          "internalType": "uint256",
          "name": "_interest_rate",
          "type": "uint256"
        },
        {
          "internalType": "uint256",
          "name": "_amount",
          "type": "uint256"
        }
      ],
      "name": "loan_approve",
      "outputs": [],
      "stateMutability": "payable",
      "type": "function"
    }
  ],
  "bytecode": "0x608060405234801561001057600080fd5b506109dc806100206000396000f3fe60806040526004361061004e5760003560e01c806312065fe014610057578063865b75f614610082578063ad5833e5146100bf578063c8f1da5e14610100578063ff51ad8a1461014157610055565b3661005557005b005b34801561006357600080fd5b5061006c61015d565b604051610079919061061b565b60405180910390f35b34801561008e57600080fd5b506100a960048036038101906100a49190610667565b610165565b6040516100b691906106ad565b60405180910390f35b3480156100cb57600080fd5b506100e660048036038101906100e191906106f4565b610189565b6040516100f7959493929190610762565b60405180910390f35b34801561010c57600080fd5b5061012760048036038101906101229190610667565b6101ff565b604051610138959493929190610762565b60405180910390f35b61015b600480360381019061015691906107e1565b610285565b005b600047905090565b6001818154811061017557600080fd5b906000526020600020016000915090505481565b60006020528060005260406000206000915090508060000154908060010160009054906101000a900473ffffffffffffffffffffffffffffffffffffffff16908060020160009054906101000a900473ffffffffffffffffffffffffffffffffffffffff16908060030154908060040154905085565b6002818154811061020f57600080fd5b90600052602060002090600502016000915090508060000154908060010160009054906101000a900473ffffffffffffffffffffffffffffffffffffffff16908060020160009054906101000a900473ffffffffffffffffffffffffffffffffffffffff16908060030154908060040154905085565b600085858585856040516020016102a09594939291906108e6565b6040516020818303038152906040528051906020012090506102c06105a4565b8681600001818152505085816020019073ffffffffffffffffffffffffffffffffffffffff16908173ffffffffffffffffffffffffffffffffffffffff168152505084816040019073ffffffffffffffffffffffffffffffffffffffff16908173ffffffffffffffffffffffffffffffffffffffff16815250508381606001818152505082816080018181525050806000808481526020019081526020016000206000820151816000015560208201518160010160006101000a81548173ffffffffffffffffffffffffffffffffffffffff021916908373ffffffffffffffffffffffffffffffffffffffff16021790555060408201518160020160006101000a81548173ffffffffffffffffffffffffffffffffffffffff021916908373ffffffffffffffffffffffffffffffffffffffff160217905550606082015181600301556080820151816004015590505060028190806001815401808255809150506001900390600052602060002090600502016000909190919091506000820151816000015560208201518160010160006101000a81548173ffffffffffffffffffffffffffffffffffffffff021916908373ffffffffffffffffffffffffffffffffffffffff16021790555060408201518160020160006101000a81548173ffffffffffffffffffffffffffffffffffffffff021916908373ffffffffffffffffffffffffffffffffffffffff1602179055506060820151816003015560808201518160040155505060018290806001815401808255809150506001900390600052602060002001600090919091909150558573ffffffffffffffffffffffffffffffffffffffff166108fc349081150290604051600060405180830381858888f19350505050158015610559573d6000803e3d6000fd5b507ff954faabc0f0ddbc7e8d12d921ca50baf2342ece465adb070b5a9c93beaa40a382888888888860405161059396959493929190610945565b60405180910390a150505050505050565b6040518060a0016040528060008019168152602001600073ffffffffffffffffffffffffffffffffffffffff168152602001600073ffffffffffffffffffffffffffffffffffffffff16815260200160008152602001600081525090565b6000819050919050565b61061581610602565b82525050565b6000602082019050610630600083018461060c565b92915050565b600080fd5b61064481610602565b811461064f57600080fd5b50565b6000813590506106618161063b565b92915050565b60006020828403121561067d5761067c610636565b5b600061068b84828501610652565b91505092915050565b6000819050919050565b6106a781610694565b82525050565b60006020820190506106c2600083018461069e565b92915050565b6106d181610694565b81146106dc57600080fd5b50565b6000813590506106ee816106c8565b92915050565b60006020828403121561070a57610709610636565b5b6000610718848285016106df565b91505092915050565b600073ffffffffffffffffffffffffffffffffffffffff82169050919050565b600061074c82610721565b9050919050565b61075c81610741565b82525050565b600060a082019050610777600083018861069e565b6107846020830187610753565b6107916040830186610753565b61079e606083018561060c565b6107ab608083018461060c565b9695505050505050565b6107be81610741565b81146107c957600080fd5b50565b6000813590506107db816107b5565b92915050565b600080600080600060a086880312156107fd576107fc610636565b5b600061080b888289016106df565b955050602061081c888289016107cc565b945050604061082d888289016107cc565b935050606061083e88828901610652565b925050608061084f88828901610652565b9150509295509295909350565b6000819050919050565b61087761087282610694565b61085c565b82525050565b60008160601b9050919050565b60006108958261087d565b9050919050565b60006108a78261088a565b9050919050565b6108bf6108ba82610741565b61089c565b82525050565b6000819050919050565b6108e06108db82610602565b6108c5565b82525050565b60006108f28288610866565b60208201915061090282876108ae565b60148201915061091282866108ae565b60148201915061092282856108cf565b60208201915061093282846108cf565b6020820191508190509695505050505050565b600060c08201905061095a600083018961069e565b610967602083018861069e565b6109746040830187610753565b6109816060830186610753565b61098e608083018561060c565b61099b60a083018461060c565b97965050505050505056fea2646970667358221220cfa9338e8d931bd079a08e141ecfd6108dc64df36abee0d45f396f8480e8c54664736f6c63430008130033",
  "immutableReferences": {},
  "source": "// SPDX-License-Identifier: MIT\r\npragma solidity >=0.4.22 <0.9.0;\r\n\r\ncontract LoanApproved {\r\n\r\n    struct LoanReceipt {\r\n        bytes32 loanID;\r\n        address borrower;\r\n        address provider;\r\n        uint256 interest_rate;\r\n        uint256 amount;\r\n    }\r\n\r\n    receive() external payable {}\r\n\r\n    fallback() external payable {}\r\n\r\n    function getBalance() public view returns (uint) {\r\n        return address(this).balance;\r\n    }\r\n\r\n    event LoanApprovedEvent(bytes32 receiptID, bytes32 loanID, address borrower, address provider, uint256 interest_rate, uint256 amount);\r\n\r\n    mapping(bytes32 => LoanReceipt) public LoanReceiptMapping;\r\n    bytes32[] public LoanReceiptAddresses; \r\n    LoanReceipt[] public LoanReceipts;\r\n\r\n    function loan_approve(bytes32 _loanID, address _borrower, address _provider, uint256 _interest_rate, uint256 _amount) public payable {\r\n        bytes32 receiptID = keccak256(abi.encodePacked(_loanID, _borrower, _provider, _interest_rate, _amount));\r\n        LoanReceipt memory loan_receipt;\r\n        loan_receipt.loanID = _loanID;\r\n        loan_receipt.borrower = _borrower;\r\n        loan_receipt.provider = _provider;\r\n        loan_receipt.interest_rate = _interest_rate;\r\n        loan_receipt.amount = _amount;\r\n        LoanReceiptMapping[receiptID] = loan_receipt;\r\n        \r\n        LoanReceipts.push(loan_receipt);\r\n        LoanReceiptAddresses.push(receiptID);\r\n\r\n        payable(_borrower).transfer(msg.value);\r\n\r\n        emit LoanApprovedEvent(receiptID, _loanID, _borrower, _provider, _interest_rate, _amount);   \r\n    }\r\n}",
  "sourcePath": "C:\\Users\\adiku\\BL-FinancialSupplyChain-DApp\\contracts\\LoanApproved.sol",
  "compiler": {
    "name": "solc",
    "version": "0.8.19+commit.7dd6d404.Emscripten.clang"
  },
  "schemaVersion": "3.4.10",
  "updatedAt": "2023-03-16T03:53:03.704Z",
  "devdoc": {
    "kind": "dev",
    "methods": {},
    "version": 1
  },
  "userdoc": {
    "kind": "user",
    "methods": {},
    "version": 1
  }
}