{
  "contractName": "Loan",
  "abi": [
    {
      "anonymous": false,
      "inputs": [
        {
          "indexed": false,
          "internalType": "address",
          "name": "borrower",
          "type": "address"
        },
        {
          "indexed": false,
          "internalType": "address",
          "name": "provider",
          "type": "address"
        },
        {
          "indexed": false,
          "internalType": "uint256",
          "name": "amount",
          "type": "uint256"
        },
        {
          "indexed": false,
          "internalType": "enum LoanStatus",
          "name": "status",
          "type": "uint8"
        },
        {
          "indexed": false,
          "internalType": "uint256",
          "name": "interest_rate",
          "type": "uint256"
        }
      ],
      "name": "NewLoanPlaced",
      "type": "event"
    },
    {
      "stateMutability": "payable",
      "type": "fallback",
      "payable": true
    },
    {
      "inputs": [],
      "name": "loan",
      "outputs": [
        {
          "internalType": "address payable",
          "name": "borrower",
          "type": "address"
        },
        {
          "internalType": "address",
          "name": "provider",
          "type": "address"
        },
        {
          "internalType": "uint256",
          "name": "amount",
          "type": "uint256"
        },
        {
          "internalType": "enum LoanStatus",
          "name": "status",
          "type": "uint8"
        },
        {
          "internalType": "bool",
          "name": "approved",
          "type": "bool"
        },
        {
          "internalType": "uint256",
          "name": "interest_rate",
          "type": "uint256"
        }
      ],
      "stateMutability": "view",
      "type": "function",
      "constant": true
    },
    {
      "stateMutability": "payable",
      "type": "receive",
      "payable": true
    },
    {
      "inputs": [],
      "name": "getBalance",
      "outputs": [
        {
          "internalType": "uint256",
          "name": "",
          "type": "uint256"
        }
      ],
      "stateMutability": "view",
      "type": "function",
      "constant": true
    },
    {
      "inputs": [
        {
          "internalType": "address payable",
          "name": "_borrower",
          "type": "address"
        },
        {
          "internalType": "address",
          "name": "_provider",
          "type": "address"
        },
        {
          "internalType": "uint256",
          "name": "_interest_rate",
          "type": "uint256"
        },
        {
          "internalType": "uint256",
          "name": "_amount",
          "type": "uint256"
        }
      ],
      "name": "approve_loan",
      "outputs": [],
      "stateMutability": "payable",
      "type": "function",
      "payable": true
    }
  ],
  "bytecode": "0x608060405234801561001057600080fd5b50610780806100206000396000f3fe6080604052600436106100385760003560e01c806312065fe01461004157806327b44cdf1461006c578063d285b7b4146100885761003f565b3661003f57005b005b34801561004d57600080fd5b506100566100b8565b6040516100639190610395565b60405180910390f35b6100866004803603810190610081919061047d565b6100c0565b005b34801561009457600080fd5b5061009d6102f8565b6040516100af96959493929190610594565b60405180910390f35b600047905090565b836000800160006101000a81548173ffffffffffffffffffffffffffffffffffffffff021916908373ffffffffffffffffffffffffffffffffffffffff16021790555082600060010160006101000a81548173ffffffffffffffffffffffffffffffffffffffff021916908373ffffffffffffffffffffffffffffffffffffffff1602179055508060006002018190555081600060040181905550808373ffffffffffffffffffffffffffffffffffffffff163110156101b5576040517f08c379a00000000000000000000000000000000000000000000000000000000081526004016101ac90610678565b60405180910390fd5b6001600060030160006101000a81548160ff021916908360028111156101de576101dd610502565b5b02179055506000800160009054906101000a900473ffffffffffffffffffffffffffffffffffffffff1673ffffffffffffffffffffffffffffffffffffffff166108fc349081150290604051600060405180830381858888f1935050505015801561024d573d6000803e3d6000fd5b507f3e0677504650ee593e984c64eab270ac3dc1b10b9d0b98618c5022959573ace26000800160009054906101000a900473ffffffffffffffffffffffffffffffffffffffff16600060010160009054906101000a900473ffffffffffffffffffffffffffffffffffffffff16600060020154600060030160009054906101000a900460ff166000600401546040516102ea9594939291906106f7565b60405180910390a150505050565b60008060000160009054906101000a900473ffffffffffffffffffffffffffffffffffffffff16908060010160009054906101000a900473ffffffffffffffffffffffffffffffffffffffff16908060020154908060030160009054906101000a900460ff16908060030160019054906101000a900460ff16908060040154905086565b6000819050919050565b61038f8161037c565b82525050565b60006020820190506103aa6000830184610386565b92915050565b600080fd5b600073ffffffffffffffffffffffffffffffffffffffff82169050919050565b60006103e0826103b5565b9050919050565b6103f0816103d5565b81146103fb57600080fd5b50565b60008135905061040d816103e7565b92915050565b600061041e826103b5565b9050919050565b61042e81610413565b811461043957600080fd5b50565b60008135905061044b81610425565b92915050565b61045a8161037c565b811461046557600080fd5b50565b60008135905061047781610451565b92915050565b60008060008060808587031215610497576104966103b0565b5b60006104a5878288016103fe565b94505060206104b68782880161043c565b93505060406104c787828801610468565b92505060606104d887828801610468565b91505092959194509250565b6104ed816103d5565b82525050565b6104fc81610413565b82525050565b7f4e487b7100000000000000000000000000000000000000000000000000000000600052602160045260246000fd5b6003811061054257610541610502565b5b50565b600081905061055382610531565b919050565b600061056382610545565b9050919050565b61057381610558565b82525050565b60008115159050919050565b61058e81610579565b82525050565b600060c0820190506105a960008301896104e4565b6105b660208301886104f3565b6105c36040830187610386565b6105d0606083018661056a565b6105dd6080830185610585565b6105ea60a0830184610386565b979650505050505050565b600082825260208201905092915050565b7f50726f766964657220646f65736e2774206861766520656e6f7567682066756e60008201527f6473000000000000000000000000000000000000000000000000000000000000602082015250565b60006106626022836105f5565b915061066d82610606565b604082019050919050565b6000602082019050818103600083015261069181610655565b9050919050565b6000819050919050565b60006106bd6106b86106b3846103b5565b610698565b6103b5565b9050919050565b60006106cf826106a2565b9050919050565b60006106e1826106c4565b9050919050565b6106f1816106d6565b82525050565b600060a08201905061070c60008301886106e8565b61071960208301876104f3565b6107266040830186610386565b610733606083018561056a565b6107406080830184610386565b969550505050505056fea26469706673582212202644a414428a93dad8c4268e55be412f1fb7c0a6c06a8a2f6907e1e69fba2d7464736f6c63430008130033",
  "immutableReferences": {},
  "source": "// SPDX-License-Identifier: MIT\r\npragma solidity >=0.4.22 <0.9.0;\r\n\r\n enum LoanStatus {Pending, Approved, Rejected}\r\n\r\ncontract Loan {\r\n    \r\n    struct LoanRequest {\r\n        address payable borrower;\r\n        address provider;\r\n        uint256 amount;    \r\n        LoanStatus status;\r\n        bool approved;\r\n        uint256 interest_rate; //128 bytes and 10 decimal places   \r\n    } \r\n\r\n    LoanRequest public loan;\r\n\r\n    // constructor(uint256 _amount, uint256 _interest_rate) {\r\n    //     Loan memory init = Loan(payable(msg.sender), address(0x0), _amount, LoanStatus.Pending, false, _interest_rate);\r\n    //     // borrower = payable(msg.sender);\r\n    //     // provider = address(0x0);\r\n    //     // interest_rate = _interest_rate;\r\n    //     // amount = _amount;\r\n    //     // approved = false;\r\n    //     loan = init;\r\n    // }\r\n\r\n    receive() external payable {}\r\n\r\n    fallback() external payable {}\r\n\r\n    function getBalance() public view returns (uint) {\r\n        return address(this).balance;\r\n    }\r\n\r\n event NewLoanPlaced(address borrower, address provider, uint256 amount, LoanStatus status, uint256 interest_rate);\r\n\r\n    function approve_loan(address payable _borrower, address _provider, uint256 _interest_rate, uint256 _amount) public payable {\r\n\r\n        loan.borrower = _borrower;\r\n        loan.provider = _provider;\r\n        loan.amount = _amount;\r\n        loan.interest_rate = _interest_rate;\r\n       \r\n        require(address(_provider).balance >= _amount, \"Provider doesn't have enough funds\");\r\n        loan.status = LoanStatus.Approved;\r\n\r\n        loan.borrower.transfer(msg.value);\r\n\r\n        emit NewLoanPlaced(loan.borrower, loan.provider, loan.amount, loan.status, loan.interest_rate);\r\n    }\r\n}\r\n",
  "sourcePath": "C:\\Users\\adiku\\BL-FinancialSupplyChain-DApp\\contracts\\Loan.sol",
  "compiler": {
    "name": "solc",
    "version": "0.8.19+commit.7dd6d404.Emscripten.clang"
  },
  "schemaVersion": "3.4.10",
  "updatedAt": "2023-03-12T17:07:48.119Z",
  "networkType": "ethereum",
  "devdoc": {
    "kind": "dev",
    "methods": {},
    "version": 1
  },
  "userdoc": {
    "kind": "user",
    "methods": {},
    "version": 1
  }
}