{
  "contractName": "Purchase",
  "abi": [
    {
      "anonymous": false,
      "inputs": [
        {
          "indexed": false,
          "internalType": "bytes32",
          "name": "orderId",
          "type": "bytes32"
        },
        {
          "indexed": false,
          "internalType": "address",
          "name": "buyer",
          "type": "address"
        },
        {
          "indexed": false,
          "internalType": "address",
          "name": "vendor",
          "type": "address"
        },
        {
          "indexed": false,
          "internalType": "string",
          "name": "product",
          "type": "string"
        },
        {
          "indexed": false,
          "internalType": "uint256",
          "name": "quantity",
          "type": "uint256"
        },
        {
          "indexed": false,
          "internalType": "uint256",
          "name": "amount",
          "type": "uint256"
        }
      ],
      "name": "NewOrderPlaced",
      "type": "event"
    },
    {
      "stateMutability": "payable",
      "type": "fallback",
      "payable": true
    },
    {
      "inputs": [
        {
          "internalType": "bytes32",
          "name": "",
          "type": "bytes32"
        }
      ],
      "name": "orders",
      "outputs": [
        {
          "internalType": "address",
          "name": "buyer",
          "type": "address"
        },
        {
          "internalType": "address",
          "name": "vendor",
          "type": "address"
        },
        {
          "internalType": "string",
          "name": "product",
          "type": "string"
        },
        {
          "internalType": "uint256",
          "name": "qty",
          "type": "uint256"
        },
        {
          "internalType": "uint256",
          "name": "amount",
          "type": "uint256"
        }
      ],
      "stateMutability": "view",
      "type": "function",
      "constant": true
    },
    {
      "stateMutability": "payable",
      "type": "receive",
      "payable": true
    },
    {
      "inputs": [],
      "name": "getBalance",
      "outputs": [
        {
          "internalType": "uint256",
          "name": "",
          "type": "uint256"
        }
      ],
      "stateMutability": "view",
      "type": "function",
      "constant": true
    },
    {
      "inputs": [
        {
          "internalType": "address",
          "name": "_buyer",
          "type": "address"
        },
        {
          "internalType": "address",
          "name": "_vendor",
          "type": "address"
        },
        {
          "internalType": "string",
          "name": "_product",
          "type": "string"
        },
        {
          "internalType": "uint256",
          "name": "_quantity",
          "type": "uint256"
        },
        {
          "internalType": "uint256",
          "name": "_amount",
          "type": "uint256"
        }
      ],
      "name": "placePurchaseOrder",
      "outputs": [],
      "stateMutability": "payable",
      "type": "function",
      "payable": true
    }
  ],
  "bytecode": "0x608060405234801561001057600080fd5b50610b75806100206000396000f3fe6080604052600436106100385760003560e01c806312065fe0146100415780635155a5411461006c5780639c3f1e90146100885761003f565b3661003f57005b005b34801561004d57600080fd5b506100566100c9565b6040516100639190610374565b60405180910390f35b61008660048036038101906100819190610488565b6100d1565b005b34801561009457600080fd5b506100af60048036038101906100aa9190610558565b61025d565b6040516100c0959493929190610624565b60405180910390f35b600047905090565b60008686868686866040516020016100ee96959493929190610726565b6040516020818303038152906040528051906020012090506000600160008381526020019081526020016000209050878160000160006101000a81548173ffffffffffffffffffffffffffffffffffffffff021916908373ffffffffffffffffffffffffffffffffffffffff160217905550868160010160006101000a81548173ffffffffffffffffffffffffffffffffffffffff021916908373ffffffffffffffffffffffffffffffffffffffff16021790555085858260020191826101b69291906109c9565b508381600301819055508281600401819055507fbb617a7103191aed1f9d36c01fbf28bf9f0c847c038eccdf012be8cc528776e0828989898989896040516102049796959493929190610ad5565b60405180910390a18673ffffffffffffffffffffffffffffffffffffffff166108fc349081150290604051600060405180830381858888f19350505050158015610252573d6000803e3d6000fd5b505050505050505050565b60016020528060005260406000206000915090508060000160009054906101000a900473ffffffffffffffffffffffffffffffffffffffff16908060010160009054906101000a900473ffffffffffffffffffffffffffffffffffffffff16908060020180546102cc906107ec565b80601f01602080910402602001604051908101604052809291908181526020018280546102f8906107ec565b80156103455780601f1061031a57610100808354040283529160200191610345565b820191906000526020600020905b81548152906001019060200180831161032857829003601f168201915b5050505050908060030154908060040154905085565b6000819050919050565b61036e8161035b565b82525050565b60006020820190506103896000830184610365565b92915050565b600080fd5b600080fd5b600073ffffffffffffffffffffffffffffffffffffffff82169050919050565b60006103c482610399565b9050919050565b6103d4816103b9565b81146103df57600080fd5b50565b6000813590506103f1816103cb565b92915050565b600080fd5b600080fd5b600080fd5b60008083601f84011261041c5761041b6103f7565b5b8235905067ffffffffffffffff811115610439576104386103fc565b5b60208301915083600182028301111561045557610454610401565b5b9250929050565b6104658161035b565b811461047057600080fd5b50565b6000813590506104828161045c565b92915050565b60008060008060008060a087890312156104a5576104a461038f565b5b60006104b389828a016103e2565b96505060206104c489828a016103e2565b955050604087013567ffffffffffffffff8111156104e5576104e4610394565b5b6104f189828a01610406565b9450945050606061050489828a01610473565b925050608061051589828a01610473565b9150509295509295509295565b6000819050919050565b61053581610522565b811461054057600080fd5b50565b6000813590506105528161052c565b92915050565b60006020828403121561056e5761056d61038f565b5b600061057c84828501610543565b91505092915050565b61058e816103b9565b82525050565b600081519050919050565b600082825260208201905092915050565b60005b838110156105ce5780820151818401526020810190506105b3565b60008484015250505050565b6000601f19601f8301169050919050565b60006105f682610594565b610600818561059f565b93506106108185602086016105b0565b610619816105da565b840191505092915050565b600060a0820190506106396000830188610585565b6106466020830187610585565b818103604083015261065881866105eb565b90506106676060830185610365565b6106746080830184610365565b9695505050505050565b60008160601b9050919050565b60006106968261067e565b9050919050565b60006106a88261068b565b9050919050565b6106c06106bb826103b9565b61069d565b82525050565b600081905092915050565b82818337600083830152505050565b60006106ec83856106c6565b93506106f98385846106d1565b82840190509392505050565b6000819050919050565b61072061071b8261035b565b610705565b82525050565b600061073282896106af565b60148201915061074282886106af565b6014820191506107538286886106e0565b915061075f828561070f565b60208201915061076f828461070f565b602082019150819050979650505050505050565b600082905092915050565b7f4e487b7100000000000000000000000000000000000000000000000000000000600052604160045260246000fd5b7f4e487b7100000000000000000000000000000000000000000000000000000000600052602260045260246000fd5b6000600282049050600182168061080457607f821691505b602082108103610817576108166107bd565b5b50919050565b60008190508160005260206000209050919050565b60006020601f8301049050919050565b600082821b905092915050565b60006008830261087f7fffffffffffffffffffffffffffffffffffffffffffffffffffffffffffffffff82610842565b6108898683610842565b95508019841693508086168417925050509392505050565b6000819050919050565b60006108c66108c16108bc8461035b565b6108a1565b61035b565b9050919050565b6000819050919050565b6108e0836108ab565b6108f46108ec826108cd565b84845461084f565b825550505050565b600090565b6109096108fc565b6109148184846108d7565b505050565b5b818110156109385761092d600082610901565b60018101905061091a565b5050565b601f82111561097d5761094e8161081d565b61095784610832565b81016020851015610966578190505b61097a61097285610832565b830182610919565b50505b505050565b600082821c905092915050565b60006109a060001984600802610982565b1980831691505092915050565b60006109b9838361098f565b9150826002028217905092915050565b6109d38383610783565b67ffffffffffffffff8111156109ec576109eb61078e565b5b6109f682546107ec565b610a0182828561093c565b6000601f831160018114610a305760008415610a1e578287013590505b610a2885826109ad565b865550610a90565b601f198416610a3e8661081d565b60005b82811015610a6657848901358255600182019150602085019450602081019050610a41565b86831015610a835784890135610a7f601f89168261098f565b8355505b6001600288020188555050505b50505050505050565b610aa281610522565b82525050565b6000610ab4838561059f565b9350610ac18385846106d1565b610aca836105da565b840190509392505050565b600060c082019050610aea600083018a610a99565b610af76020830189610585565b610b046040830188610585565b8181036060830152610b17818688610aa8565b9050610b266080830185610365565b610b3360a0830184610365565b9897505050505050505056fea26469706673582212206d382095f2c7a6636a65612ce55af98fbf2c2b5034dd5bc4f2b6be532be5ec1564736f6c63430008130033",
  "immutableReferences": {},
  "source": "// SPDX-License-Identifier: MIT\r\npragma solidity >=0.4.22 <0.9.0;\r\n\r\n// enum OrderStatus {Not_Started, Order_Placed, Vendor_Action, Vendor_Delivered, Order_Completed}\r\n\r\ncontract Purchase {\r\n    struct Order {\r\n        address buyer;\r\n        address vendor;\r\n        string product;\r\n        uint256 qty;\r\n        uint256 amount;\r\n        // OrderStatus status;\r\n    } //order in the blockchain\r\n    string name;\r\n    mapping(bytes32 => Order) public orders;\r\n\r\n    event NewOrderPlaced(bytes32 orderId, address buyer, address vendor, string product, uint256 quantity, uint256 amount);\r\n\r\n    receive() external payable {}\r\n\r\n    fallback() external payable {}\r\n\r\n    function getBalance() public view returns (uint) {\r\n        return address(this).balance;\r\n    }\r\n\r\n    function placePurchaseOrder(address _buyer, address _vendor, string calldata _product, uint256 _quantity, uint256 _amount) public payable {\r\n\r\n        bytes32 orderID = keccak256(abi.encodePacked(_buyer,_vendor,_product,_quantity,_amount));\r\n        Order storage purchase_order = orders[orderID];\r\n\r\n        // require(purchase_order.status == OrderStatus.Not_Started, \"Order has already been started\");\r\n\r\n        purchase_order.buyer = _buyer;\r\n        purchase_order.vendor = _vendor;\r\n        purchase_order.product = _product;\r\n        purchase_order.qty = _quantity;\r\n        purchase_order.amount = _amount;\r\n        // purchase_order.status = OrderStatus.Order_Placed;\r\n\r\n        emit NewOrderPlaced(orderID, _buyer, _vendor, _product, _quantity, _amount);\r\n\r\n        // payable(_vendor).transfer(_amount);\r\n        payable(_vendor).transfer(msg.value);\r\n\r\n    }\r\n\r\n}",
  "sourcePath": "C:\\Users\\adiku\\BL-FinancialSupplyChain-DApp\\contracts\\Purchase.sol",
  "compiler": {
    "name": "solc",
    "version": "0.8.19+commit.7dd6d404.Emscripten.clang"
  },
  "schemaVersion": "3.4.10",
  "updatedAt": "2023-03-12T17:07:46.386Z",
  "networkType": "ethereum",
  "devdoc": {
    "kind": "dev",
    "methods": {},
    "version": 1
  },
  "userdoc": {
    "kind": "user",
    "methods": {},
    "version": 1
  }
}