{
  "contractName": "Received",
  "abi": [
    {
      "anonymous": false,
      "inputs": [
        {
          "indexed": false,
          "internalType": "bytes32",
          "name": "billID",
          "type": "bytes32"
        },
        {
          "indexed": false,
          "internalType": "bytes32",
          "name": "shipID",
          "type": "bytes32"
        },
        {
          "indexed": false,
          "internalType": "bytes32",
          "name": "orderID",
          "type": "bytes32"
        },
        {
          "indexed": false,
          "internalType": "address",
          "name": "buyer",
          "type": "address"
        },
        {
          "indexed": false,
          "internalType": "address",
          "name": "vendor",
          "type": "address"
        },
        {
          "indexed": false,
          "internalType": "string",
          "name": "product",
          "type": "string"
        },
        {
          "indexed": false,
          "internalType": "uint8",
          "name": "num_days",
          "type": "uint8"
        },
        {
          "indexed": false,
          "internalType": "uint256",
          "name": "qty",
          "type": "uint256"
        },
        {
          "indexed": false,
          "internalType": "uint256",
          "name": "amount",
          "type": "uint256"
        }
      ],
      "name": "ProductReceived",
      "type": "event"
    },
    {
      "inputs": [
        {
          "internalType": "bytes32",
          "name": "",
          "type": "bytes32"
        }
      ],
      "name": "receipts",
      "outputs": [
        {
          "internalType": "bytes32",
          "name": "shipID",
          "type": "bytes32"
        },
        {
          "internalType": "bytes32",
          "name": "orderID",
          "type": "bytes32"
        },
        {
          "internalType": "address",
          "name": "buyer",
          "type": "address"
        },
        {
          "internalType": "address",
          "name": "vendor",
          "type": "address"
        },
        {
          "internalType": "string",
          "name": "product",
          "type": "string"
        },
        {
          "internalType": "uint8",
          "name": "num_days",
          "type": "uint8"
        },
        {
          "internalType": "uint256",
          "name": "qty",
          "type": "uint256"
        },
        {
          "internalType": "uint256",
          "name": "amount",
          "type": "uint256"
        }
      ],
      "stateMutability": "view",
      "type": "function",
      "constant": true
    },
    {
      "inputs": [
        {
          "internalType": "bytes32",
          "name": "_shipID",
          "type": "bytes32"
        },
        {
          "internalType": "bytes32",
          "name": "_orderID",
          "type": "bytes32"
        },
        {
          "internalType": "address",
          "name": "_buyer",
          "type": "address"
        },
        {
          "internalType": "address",
          "name": "_vendor",
          "type": "address"
        },
        {
          "internalType": "string",
          "name": "_product",
          "type": "string"
        },
        {
          "internalType": "uint8",
          "name": "_num_days",
          "type": "uint8"
        },
        {
          "internalType": "uint256",
          "name": "_qty",
          "type": "uint256"
        },
        {
          "internalType": "uint256",
          "name": "_amount",
          "type": "uint256"
        }
      ],
      "name": "receive_product",
      "outputs": [],
      "stateMutability": "nonpayable",
      "type": "function"
    }
  ],
  "bytecode": "0x608060405234801561001057600080fd5b50610d20806100206000396000f3fe608060405234801561001057600080fd5b50600436106100365760003560e01c8063559e189c1461003b578063ef6cf04d14610057575b600080fd5b6100556004803603810190610050919061063e565b61008e565b005b610071600480360381019061006c9190610714565b610335565b60405161008598979695949392919061080d565b60405180910390f35b6000898989896040516020016100a794939291906108fb565b6040516020818303038152906040528051906020012090506100c7610452565b8a8160000181815250508981602001818152505088816040019073ffffffffffffffffffffffffffffffffffffffff16908173ffffffffffffffffffffffffffffffffffffffff168152505087816060019073ffffffffffffffffffffffffffffffffffffffff16908173ffffffffffffffffffffffffffffffffffffffff168152505086868080601f016020809104026020016040519081016040528093929190818152602001838380828437600081840152601f19601f820116905080830192505050505050508160800181905250848160a0019060ff16908160ff1681525050838160c0018181525050828160e001818152505080600080848152602001908152602001600020600082015181600001556020820151816001015560408201518160020160006101000a81548173ffffffffffffffffffffffffffffffffffffffff021916908373ffffffffffffffffffffffffffffffffffffffff16021790555060608201518160030160006101000a81548173ffffffffffffffffffffffffffffffffffffffff021916908373ffffffffffffffffffffffffffffffffffffffff16021790555060808201518160040190816102889190610b84565b5060a08201518160050160006101000a81548160ff021916908360ff16021790555060c0820151816006015560e082015181600701559050507f7dc1d4599c42f706161da43e2225538c6fde5148b5a910606b48f3192b4b206882826000015183602001518460400151856060015186608001518760a001518860c001518960e0015160405161032099989796959493929190610c56565b60405180910390a15050505050505050505050565b60006020528060005260406000206000915090508060000154908060010154908060020160009054906101000a900473ffffffffffffffffffffffffffffffffffffffff16908060030160009054906101000a900473ffffffffffffffffffffffffffffffffffffffff16908060040180546103b0906109a7565b80601f01602080910402602001604051908101604052809291908181526020018280546103dc906109a7565b80156104295780601f106103fe57610100808354040283529160200191610429565b820191906000526020600020905b81548152906001019060200180831161040c57829003601f168201915b5050505050908060050160009054906101000a900460ff16908060060154908060070154905088565b6040518061010001604052806000801916815260200160008019168152602001600073ffffffffffffffffffffffffffffffffffffffff168152602001600073ffffffffffffffffffffffffffffffffffffffff16815260200160608152602001600060ff16815260200160008152602001600081525090565b600080fd5b600080fd5b6000819050919050565b6104e9816104d6565b81146104f457600080fd5b50565b600081359050610506816104e0565b92915050565b600073ffffffffffffffffffffffffffffffffffffffff82169050919050565b60006105378261050c565b9050919050565b6105478161052c565b811461055257600080fd5b50565b6000813590506105648161053e565b92915050565b600080fd5b600080fd5b600080fd5b60008083601f84011261058f5761058e61056a565b5b8235905067ffffffffffffffff8111156105ac576105ab61056f565b5b6020830191508360018202830111156105c8576105c7610574565b5b9250929050565b600060ff82169050919050565b6105e5816105cf565b81146105f057600080fd5b50565b600081359050610602816105dc565b92915050565b6000819050919050565b61061b81610608565b811461062657600080fd5b50565b60008135905061063881610612565b92915050565b60008060008060008060008060006101008a8c031215610661576106606104cc565b5b600061066f8c828d016104f7565b99505060206106808c828d016104f7565b98505060406106918c828d01610555565b97505060606106a28c828d01610555565b96505060808a013567ffffffffffffffff8111156106c3576106c26104d1565b5b6106cf8c828d01610579565b955095505060a06106e28c828d016105f3565b93505060c06106f38c828d01610629565b92505060e06107048c828d01610629565b9150509295985092959850929598565b60006020828403121561072a576107296104cc565b5b6000610738848285016104f7565b91505092915050565b61074a816104d6565b82525050565b6107598161052c565b82525050565b600081519050919050565b600082825260208201905092915050565b60005b8381101561079957808201518184015260208101905061077e565b60008484015250505050565b6000601f19601f8301169050919050565b60006107c18261075f565b6107cb818561076a565b93506107db81856020860161077b565b6107e4816107a5565b840191505092915050565b6107f8816105cf565b82525050565b61080781610608565b82525050565b600061010082019050610823600083018b610741565b610830602083018a610741565b61083d6040830189610750565b61084a6060830188610750565b818103608083015261085c81876107b6565b905061086b60a08301866107ef565b61087860c08301856107fe565b61088560e08301846107fe565b9998505050505050505050565b6000819050919050565b6108ad6108a8826104d6565b610892565b82525050565b60008160601b9050919050565b60006108cb826108b3565b9050919050565b60006108dd826108c0565b9050919050565b6108f56108f08261052c565b6108d2565b82525050565b6000610907828761089c565b602082019150610917828661089c565b60208201915061092782856108e4565b60148201915061093782846108e4565b60148201915081905095945050505050565b7f4e487b7100000000000000000000000000000000000000000000000000000000600052604160045260246000fd5b7f4e487b7100000000000000000000000000000000000000000000000000000000600052602260045260246000fd5b600060028204905060018216806109bf57607f821691505b6020821081036109d2576109d1610978565b5b50919050565b60008190508160005260206000209050919050565b60006020601f8301049050919050565b600082821b905092915050565b600060088302610a3a7fffffffffffffffffffffffffffffffffffffffffffffffffffffffffffffffff826109fd565b610a4486836109fd565b95508019841693508086168417925050509392505050565b6000819050919050565b6000610a81610a7c610a7784610608565b610a5c565b610608565b9050919050565b6000819050919050565b610a9b83610a66565b610aaf610aa782610a88565b848454610a0a565b825550505050565b600090565b610ac4610ab7565b610acf818484610a92565b505050565b5b81811015610af357610ae8600082610abc565b600181019050610ad5565b5050565b601f821115610b3857610b09816109d8565b610b12846109ed565b81016020851015610b21578190505b610b35610b2d856109ed565b830182610ad4565b50505b505050565b600082821c905092915050565b6000610b5b60001984600802610b3d565b1980831691505092915050565b6000610b748383610b4a565b9150826002028217905092915050565b610b8d8261075f565b67ffffffffffffffff811115610ba657610ba5610949565b5b610bb082546109a7565b610bbb828285610af7565b600060209050601f831160018114610bee5760008415610bdc578287015190505b610be68582610b68565b865550610c4e565b601f198416610bfc866109d8565b60005b82811015610c2457848901518255600182019150602085019450602081019050610bff565b86831015610c415784890151610c3d601f891682610b4a565b8355505b6001600288020188555050505b505050505050565b600061012082019050610c6c600083018c610741565b610c79602083018b610741565b610c86604083018a610741565b610c936060830189610750565b610ca06080830188610750565b81810360a0830152610cb281876107b6565b9050610cc160c08301866107ef565b610cce60e08301856107fe565b610cdc6101008301846107fe565b9a995050505050505050505056fea26469706673582212209f2ce2a3c2e9e9824306fffadf2470a927fac4dfc74a2754a7da8a5b26ec0ad364736f6c63430008130033",
  "immutableReferences": {},
  "source": "// SPDX-License-Identifier: MIT\r\npragma solidity >=0.4.22 <0.9.0;\r\n\r\ncontract Received {\r\n\r\n    //listen to the shipped event in past events and execute product received and store event in ganache\r\n    //bill generated with Bill ID\r\n    struct Receipt {\r\n        bytes32 shipID;\r\n        bytes32 orderID;\r\n        address buyer;\r\n        address vendor;\r\n        string product;\r\n        uint8 num_days;\r\n        uint256 qty;\r\n        uint256 amount;\r\n    }\r\n\r\n    event ProductReceived(\r\n         bytes32 billID, \r\n         bytes32 shipID, \r\n         bytes32 orderID,\r\n         address buyer, \r\n         address vendor, \r\n         string product, \r\n         uint8 num_days, \r\n         uint256 qty,\r\n         uint256 amount);\r\n\r\n    mapping (bytes32 => Receipt) public receipts;\r\n\r\n    function receive_product(bytes32 _shipID, bytes32 _orderID, address _buyer, address _vendor, string calldata _product, \r\n    uint8 _num_days, uint256 _qty, uint256 _amount) public {\r\n\r\n        bytes32 billID = keccak256(abi.encodePacked(_shipID, _orderID, _buyer, _vendor));\r\n        Receipt memory rec;\r\n\r\n        rec.shipID = _shipID;\r\n        rec.orderID = _orderID;\r\n        rec.buyer = _buyer;\r\n        rec.vendor = _vendor;\r\n        rec.product = _product;\r\n        rec.num_days = _num_days;\r\n        rec.qty = _qty;\r\n        rec.amount = _amount;\r\n        receipts[billID] = rec;\r\n        \r\n        emit ProductReceived(billID, rec.shipID, rec.orderID, rec.buyer, rec.vendor, rec.product, rec.num_days, rec.qty, rec.amount);\r\n    }\r\n}",
  "sourcePath": "c:\\Users\\adiku\\BL-FinancialSupplyChain-DApp\\contracts\\Received.sol",
  "compiler": {
    "name": "solc",
    "version": "0.8.19+commit.7dd6d404.Emscripten.clang"
  },
  "schemaVersion": "3.4.13",
  "updatedAt": "2023-03-13T19:33:58.790Z",
  "networkType": "ethereum",
  "devdoc": {
    "kind": "dev",
    "methods": {},
    "version": 1
  },
  "userdoc": {
    "kind": "user",
    "methods": {},
    "version": 1
  }
}