{
  "contractName": "Shipping",
  "abi": [
    {
      "anonymous": false,
      "inputs": [
        {
          "indexed": false,
          "internalType": "bytes32",
          "name": "shipID",
          "type": "bytes32"
        },
        {
          "indexed": false,
          "internalType": "uint8",
          "name": "num_days",
          "type": "uint8"
        },
        {
          "indexed": false,
          "internalType": "bytes32",
          "name": "orderID",
          "type": "bytes32"
        },
        {
          "indexed": false,
          "internalType": "address",
          "name": "buyer",
          "type": "address"
        },
        {
          "indexed": false,
          "internalType": "address",
          "name": "vendor",
          "type": "address"
        },
        {
          "indexed": false,
          "internalType": "string",
          "name": "product",
          "type": "string"
        },
        {
          "indexed": false,
          "internalType": "uint256",
          "name": "qty",
          "type": "uint256"
        },
        {
          "indexed": false,
          "internalType": "uint256",
          "name": "amount",
          "type": "uint256"
        }
      ],
      "name": "ProductShipped",
      "type": "event"
    },
    {
      "inputs": [
        {
          "internalType": "bytes32",
          "name": "",
          "type": "bytes32"
        }
      ],
      "name": "ship_orders",
      "outputs": [
        {
          "internalType": "bytes32",
          "name": "orderID",
          "type": "bytes32"
        },
        {
          "internalType": "address",
          "name": "buyer",
          "type": "address"
        },
        {
          "internalType": "address",
          "name": "vendor",
          "type": "address"
        },
        {
          "internalType": "string",
          "name": "product",
          "type": "string"
        },
        {
          "internalType": "uint256",
          "name": "qty",
          "type": "uint256"
        },
        {
          "internalType": "uint256",
          "name": "amount",
          "type": "uint256"
        }
      ],
      "stateMutability": "view",
      "type": "function",
      "constant": true
    },
    {
      "inputs": [],
      "name": "generateRandomNumber",
      "outputs": [
        {
          "internalType": "uint8",
          "name": "",
          "type": "uint8"
        }
      ],
      "stateMutability": "view",
      "type": "function",
      "constant": true
    },
    {
      "inputs": [
        {
          "internalType": "bytes32",
          "name": "_orderID",
          "type": "bytes32"
        },
        {
          "internalType": "address",
          "name": "_buyer",
          "type": "address"
        },
        {
          "internalType": "address",
          "name": "_vendor",
          "type": "address"
        },
        {
          "internalType": "string",
          "name": "_product",
          "type": "string"
        },
        {
          "internalType": "uint256",
          "name": "_qty",
          "type": "uint256"
        },
        {
          "internalType": "uint256",
          "name": "_amount",
          "type": "uint256"
        }
      ],
      "name": "ship",
      "outputs": [],
      "stateMutability": "nonpayable",
      "type": "function"
    }
  ],
  "bytecode": "0x608060405234801561001057600080fd5b50610dc9806100206000396000f3fe608060405234801561001057600080fd5b50600436106100415760003560e01c80630101d0d81461004657806366505dbc14610062578063773a115414610097575b600080fd5b610060600480360381019061005b9190610602565b6100b5565b005b61007c600480360381019061007791906106b1565b61030e565b60405161008e9695949392919061079b565b60405180910390f35b61009f610412565b6040516100ac919061081f565b60405180910390f35b60008787876040516020016100cc939291906108a3565b6040516020818303038152906040528051906020012090506100ec610464565b8881600001818152505087816020019073ffffffffffffffffffffffffffffffffffffffff16908173ffffffffffffffffffffffffffffffffffffffff168152505086816040019073ffffffffffffffffffffffffffffffffffffffff16908173ffffffffffffffffffffffffffffffffffffffff168152505085858080601f016020809104026020016040519081016040528093929190818152602001838380828437600081840152601f19601f82011690508083019250505050505050816060018190525083816080018181525050828160a0018181525050806000808481526020019081526020016000206000820151816000015560208201518160010160006101000a81548173ffffffffffffffffffffffffffffffffffffffff021916908373ffffffffffffffffffffffffffffffffffffffff16021790555060408201518160020160006101000a81548173ffffffffffffffffffffffffffffffffffffffff021916908373ffffffffffffffffffffffffffffffffffffffff16021790555060608201518160030190816102879190610b1b565b506080820151816004015560a082015181600501559050507fdfa23ceca93c14622c63ff7bcd44abbf1c7617d24c3786752f3a30359777391d826102c9610412565b836000015184602001518560400151866060015187608001518860a001516040516102fb989796959493929190610bed565b60405180910390a1505050505050505050565b60006020528060005260406000206000915090508060000154908060010160009054906101000a900473ffffffffffffffffffffffffffffffffffffffff16908060020160009054906101000a900473ffffffffffffffffffffffffffffffffffffffff16908060030180546103839061093e565b80601f01602080910402602001604051908101604052809291908181526020018280546103af9061093e565b80156103fc5780601f106103d1576101008083540402835291602001916103fc565b820191906000526020600020905b8154815290600101906020018083116103df57829003601f168201915b5050505050908060040154908060050154905086565b60008042443360405160200161042a93929190610c93565b6040516020818303038152906040528051906020012060001c90506001600a826104549190610cff565b61045e9190610d5f565b91505090565b6040518060c0016040528060008019168152602001600073ffffffffffffffffffffffffffffffffffffffff168152602001600073ffffffffffffffffffffffffffffffffffffffff1681526020016060815260200160008152602001600081525090565b600080fd5b600080fd5b6000819050919050565b6104e6816104d3565b81146104f157600080fd5b50565b600081359050610503816104dd565b92915050565b600073ffffffffffffffffffffffffffffffffffffffff82169050919050565b600061053482610509565b9050919050565b61054481610529565b811461054f57600080fd5b50565b6000813590506105618161053b565b92915050565b600080fd5b600080fd5b600080fd5b60008083601f84011261058c5761058b610567565b5b8235905067ffffffffffffffff8111156105a9576105a861056c565b5b6020830191508360018202830111156105c5576105c4610571565b5b9250929050565b6000819050919050565b6105df816105cc565b81146105ea57600080fd5b50565b6000813590506105fc816105d6565b92915050565b600080600080600080600060c0888a031215610621576106206104c9565b5b600061062f8a828b016104f4565b97505060206106408a828b01610552565b96505060406106518a828b01610552565b955050606088013567ffffffffffffffff811115610672576106716104ce565b5b61067e8a828b01610576565b945094505060806106918a828b016105ed565b92505060a06106a28a828b016105ed565b91505092959891949750929550565b6000602082840312156106c7576106c66104c9565b5b60006106d5848285016104f4565b91505092915050565b6106e7816104d3565b82525050565b6106f681610529565b82525050565b600081519050919050565b600082825260208201905092915050565b60005b8381101561073657808201518184015260208101905061071b565b60008484015250505050565b6000601f19601f8301169050919050565b600061075e826106fc565b6107688185610707565b9350610778818560208601610718565b61078181610742565b840191505092915050565b610795816105cc565b82525050565b600060c0820190506107b060008301896106de565b6107bd60208301886106ed565b6107ca60408301876106ed565b81810360608301526107dc8186610753565b90506107eb608083018561078c565b6107f860a083018461078c565b979650505050505050565b600060ff82169050919050565b61081981610803565b82525050565b60006020820190506108346000830184610810565b92915050565b6000819050919050565b610855610850826104d3565b61083a565b82525050565b60008160601b9050919050565b60006108738261085b565b9050919050565b600061088582610868565b9050919050565b61089d61089882610529565b61087a565b82525050565b60006108af8286610844565b6020820191506108bf828561088c565b6014820191506108cf828461088c565b601482019150819050949350505050565b7f4e487b7100000000000000000000000000000000000000000000000000000000600052604160045260246000fd5b7f4e487b7100000000000000000000000000000000000000000000000000000000600052602260045260246000fd5b6000600282049050600182168061095657607f821691505b6020821081036109695761096861090f565b5b50919050565b60008190508160005260206000209050919050565b60006020601f8301049050919050565b600082821b905092915050565b6000600883026109d17fffffffffffffffffffffffffffffffffffffffffffffffffffffffffffffffff82610994565b6109db8683610994565b95508019841693508086168417925050509392505050565b6000819050919050565b6000610a18610a13610a0e846105cc565b6109f3565b6105cc565b9050919050565b6000819050919050565b610a32836109fd565b610a46610a3e82610a1f565b8484546109a1565b825550505050565b600090565b610a5b610a4e565b610a66818484610a29565b505050565b5b81811015610a8a57610a7f600082610a53565b600181019050610a6c565b5050565b601f821115610acf57610aa08161096f565b610aa984610984565b81016020851015610ab8578190505b610acc610ac485610984565b830182610a6b565b50505b505050565b600082821c905092915050565b6000610af260001984600802610ad4565b1980831691505092915050565b6000610b0b8383610ae1565b9150826002028217905092915050565b610b24826106fc565b67ffffffffffffffff811115610b3d57610b3c6108e0565b5b610b47825461093e565b610b52828285610a8e565b600060209050601f831160018114610b855760008415610b73578287015190505b610b7d8582610aff565b865550610be5565b601f198416610b938661096f565b60005b82811015610bbb57848901518255600182019150602085019450602081019050610b96565b86831015610bd85784890151610bd4601f891682610ae1565b8355505b6001600288020188555050505b505050505050565b600061010082019050610c03600083018b6106de565b610c10602083018a610810565b610c1d60408301896106de565b610c2a60608301886106ed565b610c3760808301876106ed565b81810360a0830152610c498186610753565b9050610c5860c083018561078c565b610c6560e083018461078c565b9998505050505050505050565b6000819050919050565b610c8d610c88826105cc565b610c72565b82525050565b6000610c9f8286610c7c565b602082019150610caf8285610c7c565b602082019150610cbf828461088c565b601482019150819050949350505050565b7f4e487b7100000000000000000000000000000000000000000000000000000000600052601260045260246000fd5b6000610d0a826105cc565b9150610d15836105cc565b925082610d2557610d24610cd0565b5b828206905092915050565b7f4e487b7100000000000000000000000000000000000000000000000000000000600052601160045260246000fd5b6000610d6a826105cc565b9150610d75836105cc565b9250828201905080821115610d8d57610d8c610d30565b5b9291505056fea2646970667358221220a135c7b7e7e9367c2208119b183d048c2fbd92d28ca4aeaefdccbf150308b7ff64736f6c63430008130033",
  "immutableReferences": {},
  "source": "// SPDX-License-Identifier: MIT\r\npragma solidity >=0.4.22 <0.9.0;\r\n\r\ncontract Shipping {\r\n\r\n    //contract to emit a event stating that goods have been shipped\r\n    //pass the return values of event into this contract - > call the product shipped event with same parameters and store in ganache\r\n    //create a shipping ID\r\n\r\n    struct Ship {\r\n        bytes32 orderID;\r\n        address buyer;\r\n        address vendor;\r\n        string product;\r\n        uint256 qty;\r\n        uint256 amount;\r\n    }\r\n\r\n    mapping (bytes32 => Ship) public ship_orders;\r\n\r\n    event ProductShipped(bytes32 shipID, uint8 num_days, bytes32 orderID, address buyer, address vendor, string product, uint256 qty, uint256 amount);\r\n\r\n    function generateRandomNumber() public view returns (uint8) \r\n    {\r\n        uint256 randomNumber = uint256(keccak256(abi.encodePacked(block.timestamp, block.prevrandao, msg.sender)));\r\n        return uint8((randomNumber % 10) + 1);\r\n    }\r\n\r\n    function ship(bytes32 _orderID, address _buyer, address _vendor, string calldata _product, uint256 _qty, uint256 _amount) public { \r\n\r\n        bytes32 ship_order_ID = keccak256(abi.encodePacked(_orderID,_buyer,_vendor));\r\n\r\n        Ship memory ship_order;\r\n        ship_order.orderID = _orderID;\r\n        ship_order.buyer = _buyer;\r\n        ship_order.vendor = _vendor;\r\n        ship_order.product = _product;\r\n        ship_order.qty = _qty;\r\n        ship_order.amount = _amount;\r\n        ship_orders[ship_order_ID] = ship_order;\r\n        \r\n        emit ProductShipped(ship_order_ID, generateRandomNumber(), ship_order.orderID, ship_order.buyer, ship_order.vendor, ship_order.product, ship_order.qty, ship_order.amount);\r\n    }\r\n}",
  "sourcePath": "c:\\Users\\adiku\\BL-FinancialSupplyChain-DApp\\contracts\\Shipping.sol",
  "compiler": {
    "name": "solc",
    "version": "0.8.19+commit.7dd6d404.Emscripten.clang"
  },
  "schemaVersion": "3.4.13",
  "updatedAt": "2023-03-13T19:33:58.534Z",
  "networkType": "ethereum",
  "devdoc": {
    "kind": "dev",
    "methods": {},
    "version": 1
  },
  "userdoc": {
    "kind": "user",
    "methods": {},
    "version": 1
  }
}